{
  "contractName": "OnlyDistribution",
  "abi": [
    {
      "constant": true,
      "inputs": [
        {
          "name": "",
          "type": "address"
        }
      ],
      "name": "airdropAdmins",
      "outputs": [
        {
          "name": "",
          "type": "bool"
        }
      ],
      "payable": false,
      "stateMutability": "view",
      "type": "function"
    },
    {
      "constant": true,
      "inputs": [],
      "name": "AVAILABLE_AIRDROP_SUPPLY",
      "outputs": [
        {
          "name": "",
          "type": "uint256"
        }
      ],
      "payable": false,
      "stateMutability": "view",
      "type": "function"
    },
    {
      "constant": true,
      "inputs": [],
      "name": "INITIAL_SUPPLY",
      "outputs": [
        {
          "name": "",
          "type": "uint256"
        }
      ],
      "payable": false,
      "stateMutability": "view",
      "type": "function"
    },
    {
      "constant": true,
      "inputs": [],
      "name": "AVAILABLE_CREATOR_SUPPLY",
      "outputs": [
        {
          "name": "",
          "type": "uint256"
        }
      ],
      "payable": false,
      "stateMutability": "view",
      "type": "function"
    },
    {
      "constant": true,
      "inputs": [],
      "name": "ONLY",
      "outputs": [
        {
          "name": "",
          "type": "address"
        }
      ],
      "payable": false,
      "stateMutability": "view",
      "type": "function"
    },
    {
      "constant": true,
      "inputs": [
        {
          "name": "",
          "type": "address"
        }
      ],
      "name": "allocations",
      "outputs": [
        {
          "name": "AllocationSupply",
          "type": "uint8"
        },
        {
          "name": "endCliff",
          "type": "uint256"
        },
        {
          "name": "endVesting",
          "type": "uint256"
        },
        {
          "name": "totalAllocated",
          "type": "uint256"
        },
        {
          "name": "amountClaimed",
          "type": "uint256"
        }
      ],
      "payable": false,
      "stateMutability": "view",
      "type": "function"
    },
    {
      "constant": true,
      "inputs": [],
      "name": "startTime",
      "outputs": [
        {
          "name": "",
          "type": "uint256"
        }
      ],
      "payable": false,
      "stateMutability": "view",
      "type": "function"
    },
    {
      "constant": true,
      "inputs": [
        {
          "name": "",
          "type": "address"
        }
      ],
      "name": "airdrops",
      "outputs": [
        {
          "name": "",
          "type": "bool"
        }
      ],
      "payable": false,
      "stateMutability": "view",
      "type": "function"
    },
    {
      "constant": true,
      "inputs": [],
      "name": "owner",
      "outputs": [
        {
          "name": "",
          "type": "address"
        }
      ],
      "payable": false,
      "stateMutability": "view",
      "type": "function"
    },
    {
      "constant": true,
      "inputs": [],
      "name": "grandTotalClaimed",
      "outputs": [
        {
          "name": "",
          "type": "uint256"
        }
      ],
      "payable": false,
      "stateMutability": "view",
      "type": "function"
    },
    {
      "constant": true,
      "inputs": [],
      "name": "AVAILABLE_TOTAL_SUPPLY",
      "outputs": [
        {
          "name": "",
          "type": "uint256"
        }
      ],
      "payable": false,
      "stateMutability": "view",
      "type": "function"
    },
    {
      "constant": true,
      "inputs": [],
      "name": "AVAILABLE_PROMO_SUPPLY",
      "outputs": [
        {
          "name": "",
          "type": "uint256"
        }
      ],
      "payable": false,
      "stateMutability": "view",
      "type": "function"
    },
    {
      "constant": true,
      "inputs": [],
      "name": "AVAILABLE_ADVISOR_SUPPLY",
      "outputs": [
        {
          "name": "",
          "type": "uint256"
        }
      ],
      "payable": false,
      "stateMutability": "view",
      "type": "function"
    },
    {
      "constant": false,
      "inputs": [
        {
          "name": "newOwner",
          "type": "address"
        }
      ],
      "name": "transferOwnership",
      "outputs": [],
      "payable": false,
      "stateMutability": "nonpayable",
      "type": "function"
    },
    {
      "inputs": [
        {
          "name": "_startTime",
          "type": "uint256"
        }
      ],
      "payable": false,
      "stateMutability": "nonpayable",
      "type": "constructor"
    },
    {
      "anonymous": false,
      "inputs": [
        {
          "indexed": true,
          "name": "_recipient",
          "type": "address"
        },
        {
          "indexed": true,
          "name": "_fromSupply",
          "type": "uint8"
        },
        {
          "indexed": false,
          "name": "_totalAllocated",
          "type": "uint256"
        },
        {
          "indexed": false,
          "name": "_grandTotalAllocated",
          "type": "uint256"
        }
      ],
      "name": "LogNewAllocation",
      "type": "event"
    },
    {
      "anonymous": false,
      "inputs": [
        {
          "indexed": true,
          "name": "_recipient",
          "type": "address"
        },
        {
          "indexed": true,
          "name": "_fromSupply",
          "type": "uint8"
        },
        {
          "indexed": false,
          "name": "_amountClaimed",
          "type": "uint256"
        },
        {
          "indexed": false,
          "name": "_totalAllocated",
          "type": "uint256"
        },
        {
          "indexed": false,
          "name": "_grandTotalClaimed",
          "type": "uint256"
        }
      ],
      "name": "LogOnlyClaimed",
      "type": "event"
    },
    {
      "anonymous": false,
      "inputs": [
        {
          "indexed": true,
          "name": "previousOwner",
          "type": "address"
        },
        {
          "indexed": true,
          "name": "newOwner",
          "type": "address"
        }
      ],
      "name": "OwnershipTransferred",
      "type": "event"
    },
    {
      "constant": false,
      "inputs": [
        {
          "name": "_recipient",
          "type": "address"
        },
        {
          "name": "_totalAllocated",
          "type": "uint256"
        },
        {
          "name": "_supply",
          "type": "uint8"
        }
      ],
      "name": "setAllocation",
      "outputs": [],
      "payable": false,
      "stateMutability": "nonpayable",
      "type": "function"
    },
    {
      "constant": false,
      "inputs": [
        {
          "name": "_admin",
          "type": "address"
        },
        {
          "name": "_isAdmin",
          "type": "bool"
        }
      ],
      "name": "setAirdropAdmin",
      "outputs": [],
      "payable": false,
      "stateMutability": "nonpayable",
      "type": "function"
    },
    {
      "constant": false,
      "inputs": [
        {
          "name": "_recipient",
          "type": "address[]"
        }
      ],
      "name": "airdropTokens",
      "outputs": [],
      "payable": false,
      "stateMutability": "nonpayable",
      "type": "function"
    },
    {
      "constant": false,
      "inputs": [
        {
          "name": "_recipient",
          "type": "address"
        }
      ],
      "name": "transferTokens",
      "outputs": [],
      "payable": false,
      "stateMutability": "nonpayable",
      "type": "function"
    },
    {
      "constant": true,
      "inputs": [],
      "name": "grandTotalAllocated",
      "outputs": [
        {
          "name": "",
          "type": "uint256"
        }
      ],
      "payable": false,
      "stateMutability": "view",
      "type": "function"
    },
    {
      "constant": false,
      "inputs": [
        {
          "name": "_recipient",
          "type": "address"
        },
        {
          "name": "_token",
          "type": "address"
        }
      ],
      "name": "refundTokens",
      "outputs": [],
      "payable": false,
      "stateMutability": "nonpayable",
      "type": "function"
    }
  ],
  "bytecode": "0x60606040526103e860028190556000600381905560049190915560058190556006819055600755341561003157600080fd5b60405160208062001a268339810160405280805160008054600160a060020a03191633600160a060020a03161790559150504281101561007057600080fd5b6100b36006546100a06005546100a060045460035461011a64010000000002610dd1179091906401000000009004565b90640100000000610dd161011a82021704565b600254146100c057600080fd5b6008819055306100ce610130565b600160a060020a039091168152602001604051809103906000f08015156100f457600080fd5b60018054600160a060020a031916600160a060020a039290921691909117905550610141565b60008282018381101561012957fe5b9392505050565b604051610ac98062000f5d83390190565b610e0c80620001516000396000f3006060604052600436106100f85763ffffffff60e060020a6000350416630c89a0df81146100fd57806310e823841461011e5780631435e39714610151578063162cbefe146101795780632b41a9011461019e5780632ff2e9dc146101b157806337348377146101c45780633cf8753e146101d75780634ee51a271461020657806352a9039c1461025557806357f1935f146102a957806378e97925146102ce57806379aa024e146102e15780638c86f0a7146103055780638da5cb5b146103245780639377530f14610337578063a92259fc1461034a578063e744069c1461035d578063ed0e466514610370578063f2fde38b14610383575b600080fd5b341561010857600080fd5b61011c600160a060020a03600435166103a2565b005b341561012957600080fd5b61013d600160a060020a0360043516610619565b604051901515815260200160405180910390f35b341561015c57600080fd5b61011c600160a060020a036004351660243560ff6044351661062e565b341561018457600080fd5b61018c610907565b60405190815260200160405180910390f35b34156101a957600080fd5b61018c61090d565b34156101bc57600080fd5b61018c610917565b34156101cf57600080fd5b61018c61091d565b34156101e257600080fd5b6101ea610923565b604051600160a060020a03909116815260200160405180910390f35b341561021157600080fd5b61011c600460248135818101908301358060208181020160405190810160405280939291908181526020018383602002808284375094965061093295505050505050565b341561026057600080fd5b610274600160a060020a0360043516610afe565b60405160ff909516855260208501939093526040808501929092526060840152608083019190915260a0909101905180910390f35b34156102b457600080fd5b61011c600160a060020a0360043581169060243516610b31565b34156102d957600080fd5b61018c610c4f565b34156102ec57600080fd5b61011c600160a060020a03600435166024351515610c55565b341561031057600080fd5b61013d600160a060020a0360043516610c9b565b341561032f57600080fd5b6101ea610cb0565b341561034257600080fd5b61018c610cbf565b341561035557600080fd5b61018c610cc5565b341561036857600080fd5b61018c610ccb565b341561037b57600080fd5b61018c610cd1565b341561038e57600080fd5b61011c600160a060020a0360043516610cd7565b600160a060020a03811660009081526009602052604081206003810154600490910154829190106103d257600080fd5b600160a060020a0383166000908152600960205260409020600101544210156103fa57600080fd5b60085442101561040957600080fd5b600160a060020a038316600090815260096020526040902060020154429011156104b357600854600160a060020a0384166000908152600960205260409020600201546104ac91610460919063ffffffff610d7216565b6104a061047860085442610d7290919063ffffffff16565b600160a060020a0387166000908152600960205260409020600301549063ffffffff610d8416565b9063ffffffff610dba16565b91506104d2565b600160a060020a03831660009081526009602052604090206003015491505b600160a060020a0383166000908152600960205260409020600401546104ff90839063ffffffff610d7216565b600160a060020a038085166000908152600960205260409081902060040185905560015492935091169063a9059cbb90859084905160e060020a63ffffffff8516028152600160a060020a0390921660048301526024820152604401602060405180830381600087803b151561057457600080fd5b5af1151561058157600080fd5b50505060405180519050151561059657600080fd5b6007546105a9908263ffffffff610dd116565b6007819055600160a060020a038416600081815260096020526040908190205460ff16927fa221343132562e94f4280600c474fd66aab4b5fb317179f6c34c3e45df34d42791859187915180848152602001838152602001828152602001935050505060405180910390a3505050565b600a6020526000908152604090205460ff1681565b60005433600160a060020a0390811691161461064957600080fd5b600160a060020a0383166000908152600960205260409020600301541580156106725750600082115b151561067d57600080fd5b600081600381111561068b57fe5b101580156106a5575060038160038111156106a257fe5b11155b15156106b057600080fd5b600160a060020a03831615156106c557600080fd5b60008160038111156106d357fe5b1415610775576003546106ec908363ffffffff610d7216565b60035560a06040519081016040528060005b60ff168152600060208083018290526040808401839052606084018790526080909301829052600160a060020a038716825260099052208151815460ff191660ff91909116178155602082015181600101556040820151816002015560608201518160030155608082015160049091015550610895565b600181600381111561078357fe5b14156107b25760045461079c908363ffffffff610d7216565b60045560a06040519081016040528060016106fe565b60028160038111156107c057fe5b14156107ef576005546107d9908363ffffffff610d7216565b60055560a06040519081016040528060026106fe565b60038160038111156107fd57fe5b141561089557600654610816908363ffffffff610d7216565b60065560a0604051908101604090815260038252600060208084018290528284018290526060840186905260808401829052600160a060020a038716825260099052208151815460ff191660ff919091161781556020820151816001015560408201518160020155606082015181600301556080820151600490910155505b6002546108a8908363ffffffff610d7216565b6002558060038111156108b757fe5b83600160a060020a03167f1ee7c4bce4c301d0c55622a01f860f1b71b72f582250922fa662d173c32164ff846108eb61090d565b60405191825260208201526040908101905180910390a3505050565b60045481565b6002546103e80390565b6103e881565b60035481565b600154600160a060020a031681565b60008054819033600160a060020a039081169116148061096a5750600160a060020a0333166000908152600a602052604090205460ff165b151561097557600080fd5b60085442101561098457600080fd5b5060005b8251811015610ab757600b60008483815181106109a157fe5b90602001906020020151600160a060020a0316815260208101919091526040016000205460ff161515610aaf576001600b60008584815181106109e057fe5b90602001906020020151600160a060020a0390811682526020820192909252604001600020805460ff1916921515929092179091556001541663a9059cbb848381518110610a2a57fe5b90602001906020020151600260405160e060020a63ffffffff8516028152600160a060020a0390921660048301526024820152604401602060405180830381600087803b1515610a7957600080fd5b5af11515610a8657600080fd5b505050604051805190501515610a9b57600080fd5b610aac82600263ffffffff610dd116565b91505b600101610988565b600454610aca908363ffffffff610d7216565b600455600254610ae0908363ffffffff610d7216565b600255600754610af6908363ffffffff610dd116565b600755505050565b6009602052600090815260409020805460018201546002830154600384015460049094015460ff90931693919290919085565b60008054819033600160a060020a03908116911614610b4f57600080fd5b600154600160a060020a0384811691161415610b6a57600080fd5b82915081600160a060020a03166370a082313060405160e060020a63ffffffff8416028152600160a060020a039091166004820152602401602060405180830381600087803b1515610bbb57600080fd5b5af11515610bc857600080fd5b5050506040518051915050600160a060020a03821663a9059cbb858360405160e060020a63ffffffff8516028152600160a060020a0390921660048301526024820152604401602060405180830381600087803b1515610c2757600080fd5b5af11515610c3457600080fd5b505050604051805190501515610c4957600080fd5b50505050565b60085481565b60005433600160a060020a03908116911614610c7057600080fd5b600160a060020a03919091166000908152600a60205260409020805460ff1916911515919091179055565b600b6020526000908152604090205460ff1681565b600054600160a060020a031681565b60075481565b60025481565b60065481565b60055481565b60005433600160a060020a03908116911614610cf257600080fd5b600160a060020a0381161515610d0757600080fd5b600054600160a060020a0380831691167f8be0079c531659141344cd1fd0a4f28419497f9722a3daafe3b4186f6b6457e060405160405180910390a36000805473ffffffffffffffffffffffffffffffffffffffff1916600160a060020a0392909216919091179055565b600082821115610d7e57fe5b50900390565b600080831515610d975760009150610db3565b50828202828482811515610da757fe5b0414610daf57fe5b8091505b5092915050565b6000808284811515610dc857fe5b04949350505050565b600082820183811015610daf57fe00a165627a7a7230582003804855890bf9b46a872500ad6a90150fd662f717600b447c476f83f734241a0029606060405260408051908101604052600881527f4d4252534f6e6c790000000000000000000000000000000000000000000000006020820152600090805161004b929160200190610121565b5060408051908101604052600481527f4f4e4c590000000000000000000000000000000000000000000000000000000060208201526001908051610093929160200190610121565b50341561009f57600080fd5b604051602080610ac983398101604052808051915050600160a060020a03811615156100ca57600080fd5b600160a060020a0381166000818152600260205260408082206103e8908190557fddf252ad1be2c89b69c2b068fc378daa952ba7f163c4a11628f55a4df523b3ef915190815260200160405180910390a3506101bc565b828054600181600116156101000203166002900490600052602060002090601f016020900481019282601f1061016257805160ff191683800117855561018f565b8280016001018555821561018f579182015b8281111561018f578251825591602001919060010190610174565b5061019b92915061019f565b5090565b6101b991905b8082111561019b57600081556001016101a5565b90565b6108fe806101cb6000396000f3006060604052600436106100b95763ffffffff7c010000000000000000000000000000000000000000000000000000000060003504166306fdde0381146100be578063095ea7b31461014857806318160ddd1461017e57806323b872dd146101a3578063313ce567146101cb57806366188463146101f45780636d6a6a4d1461021657806370a082311461022957806395d89b4114610248578063a9059cbb1461025b578063d73dd6231461027d578063dd62ed3e1461029f575b600080fd5b34156100c957600080fd5b6100d16102c4565b60405160208082528190810183818151815260200191508051906020019080838360005b8381101561010d5780820151838201526020016100f5565b50505050905090810190601f16801561013a5780820380516001836020036101000a031916815260200191505b509250505060405180910390f35b341561015357600080fd5b61016a600160a060020a0360043516602435610362565b604051901515815260200160405180910390f35b341561018957600080fd5b6101916103ce565b60405190815260200160405180910390f35b34156101ae57600080fd5b61016a600160a060020a03600435811690602435166044356103d4565b34156101d657600080fd5b6101de610556565b60405160ff909116815260200160405180910390f35b34156101ff57600080fd5b61016a600160a060020a036004351660243561055b565b341561022157600080fd5b610191610655565b341561023457600080fd5b610191600160a060020a036004351661065a565b341561025357600080fd5b6100d1610675565b341561026657600080fd5b61016a600160a060020a03600435166024356106e0565b341561028857600080fd5b61016a600160a060020a03600435166024356107db565b34156102aa57600080fd5b610191600160a060020a036004358116906024351661087f565b60008054600181600116156101000203166002900480601f01602080910402602001604051908101604052809291908181526020018280546001816001161561010002031660029004801561035a5780601f1061032f5761010080835404028352916020019161035a565b820191906000526020600020905b81548152906001019060200180831161033d57829003601f168201915b505050505081565b600160a060020a03338116600081815260036020908152604080832094871680845294909152808220859055909291907f8c5be1e5ebec7d5bd14f71427d1e84f3dd0314c0f7b2291e5b200ac8c7c3b9259085905190815260200160405180910390a350600192915050565b6103e881565b6000600160a060020a03831615156103eb57600080fd5b600160a060020a03841660009081526002602052604090205482111561041057600080fd5b600160a060020a038085166000908152600360209081526040808320339094168352929052205482111561044357600080fd5b600160a060020a03841660009081526002602052604090205461046c908363ffffffff6108aa16565b600160a060020a0380861660009081526002602052604080822093909355908516815220546104a1908363ffffffff6108bc16565b600160a060020a038085166000908152600260209081526040808320949094558783168252600381528382203390931682529190915220546104e9908363ffffffff6108aa16565b600160a060020a03808616600081815260036020908152604080832033861684529091529081902093909355908516917fddf252ad1be2c89b69c2b068fc378daa952ba7f163c4a11628f55a4df523b3ef9085905190815260200160405180910390a35060019392505050565b600081565b600160a060020a033381166000908152600360209081526040808320938616835292905290812054808311156105b857600160a060020a0333811660009081526003602090815260408083209388168352929052908120556105ef565b6105c8818463ffffffff6108aa16565b600160a060020a033381166000908152600360209081526040808320938916835292905220555b600160a060020a0333811660008181526003602090815260408083209489168084529490915290819020547f8c5be1e5ebec7d5bd14f71427d1e84f3dd0314c0f7b2291e5b200ac8c7c3b925915190815260200160405180910390a35060019392505050565b600181565b600160a060020a031660009081526002602052604090205490565b60018054600181600116156101000203166002900480601f01602080910402602001604051908101604052809291908181526020018280546001816001161561010002031660029004801561035a5780601f1061032f5761010080835404028352916020019161035a565b6000600160a060020a03831615156106f757600080fd5b600160a060020a03331660009081526002602052604090205482111561071c57600080fd5b600160a060020a033316600090815260026020526040902054610745908363ffffffff6108aa16565b600160a060020a03338116600090815260026020526040808220939093559085168152205461077a908363ffffffff6108bc16565b600160a060020a0380851660008181526002602052604090819020939093559133909116907fddf252ad1be2c89b69c2b068fc378daa952ba7f163c4a11628f55a4df523b3ef9085905190815260200160405180910390a350600192915050565b600160a060020a033381166000908152600360209081526040808320938616835292905290812054610813908363ffffffff6108bc16565b600160a060020a0333811660008181526003602090815260408083209489168084529490915290819020849055919290917f8c5be1e5ebec7d5bd14f71427d1e84f3dd0314c0f7b2291e5b200ac8c7c3b92591905190815260200160405180910390a350600192915050565b600160a060020a03918216600090815260036020908152604080832093909416825291909152205490565b6000828211156108b657fe5b50900390565b6000828201838110156108cb57fe5b93925050505600a165627a7a72305820733ab6b07330714058b5c35f0ae7812da34e88806c5be93057adc852ce2030910029",
  "source": "pragma solidity ^0.4.18;\r\n\r\nimport \"./interfaces/IERC20.sol\";\r\nimport \"./OnlyToken.sol\";\r\nimport \"./SafeMath.sol\";\r\nimport \"./Ownable.sol\";\r\n\r\n/**\r\n * @title ONLY token initial distribution\r\n *\r\n * @dev Distribute allocated tokens\r\n */\r\ncontract OnlyDistribution is Ownable {\r\n    using SafeMath for uint256;\r\n\r\n    OnlyToken public ONLY;\r\n\r\n    uint256 private constant decimalFactor = 10**uint256(0);\r\n    enum AllocationType { CREATOR, AIRDROP, ADVISOR, PROMO }\r\n    uint256 public constant INITIAL_SUPPLY   = 1000 * decimalFactor;\r\n    uint256 public AVAILABLE_TOTAL_SUPPLY    = 1000 * decimalFactor;\r\n    uint256 public AVAILABLE_CREATOR_SUPPLY  = 0 * decimalFactor; // 100% Released at Token Distribution (TD)\r\n    uint256 public AVAILABLE_AIRDROP_SUPPLY  = 1000 * decimalFactor; // 100% released at token Distribution (TD)\r\n    uint256 public AVAILABLE_ADVISOR_SUPPLY  = 0 * decimalFactor; // 100% Released at TD\r\n    uint256 public AVAILABLE_PROMO_SUPPLY    = 0 * decimalFactor; // 100% Released at TD\r\n  //uint256 public AVAILABLE_RESERVE_SUPPLY  =  513116658 * decimalFactor; // 6.8% Released at TD +100 days -> 100% at TD +4 years\r\n  //uint256 public AVAILABLE_BONUS1_SUPPLY  =    39053330 * decimalFactor; // 100% Released at TD +1 year\r\n  //uint256 public AVAILABLE_BONUS2_SUPPLY  =     9354408 * decimalFactor; // 100% Released at TD +2 years\r\n  //uint256 public AVAILABLE_BONUS3_SUPPLY  =    28475604 * decimalFactor; // 100% Released at TD +3 years\r\n\r\n    uint256 public grandTotalClaimed = 0;\r\n    uint256 public startTime;\r\n\r\n  // Allocation with vesting information\r\n    struct Allocation {\r\n        uint8 AllocationSupply; // Type of allocation\r\n        uint256 endCliff;       // Tokens are locked until\r\n        uint256 endVesting;     // This is when the tokens are fully unvested\r\n        uint256 totalAllocated; // Total tokens allocated\r\n        uint256 amountClaimed;  // Total tokens claimed\r\n    }\r\n    mapping (address => Allocation) public allocations;\r\n\r\n  // List of admins\r\n    mapping (address => bool) public airdropAdmins;\r\n\r\n  // Keeps track of whether or not a ONLY airdrop has been made to a particular address\r\n    mapping (address => bool) public airdrops;\r\n\r\n    modifier onlyOwnerOrAdmin() {\r\n        require(msg.sender == owner || airdropAdmins[msg.sender]);\r\n        _;\r\n    }\r\n\r\n    event LogNewAllocation(address indexed _recipient, AllocationType indexed _fromSupply, uint256 _totalAllocated, uint256 _grandTotalAllocated);\r\n    event LogOnlyClaimed(address indexed _recipient, uint8 indexed _fromSupply, uint256 _amountClaimed, uint256 _totalAllocated, uint256 _grandTotalClaimed);\r\n\r\n  /**\r\n    * @dev Constructor function - Set the ONLY token address\r\n    * @param _startTime The time when OnlyDistribution goes live\r\n    */\r\n    function OnlyDistribution(uint256 _startTime) public {\r\n        require(_startTime >= now);\r\n        require(AVAILABLE_TOTAL_SUPPLY == AVAILABLE_CREATOR_SUPPLY.add(AVAILABLE_AIRDROP_SUPPLY).add(AVAILABLE_ADVISOR_SUPPLY).add(AVAILABLE_PROMO_SUPPLY));\r\n        startTime = _startTime;\r\n        ONLY = new OnlyToken(this);\r\n    }\r\n\r\n  /**\r\n    * @dev Allow the owner of the contract to assign a new allocation\r\n    * @param _recipient The recipient of the allocation\r\n    * @param _totalAllocated The total amount of ONLY available to the receipient (after vesting)\r\n    * @param _supply The ONLY supply the allocation will be taken from\r\n    */\r\n    function setAllocation (address _recipient, uint256 _totalAllocated, AllocationType _supply) onlyOwner public {\r\n        require(allocations[_recipient].totalAllocated == 0 && _totalAllocated > 0);\r\n        require(_supply >= AllocationType.CREATOR && _supply <= AllocationType.PROMO);\r\n        require(_recipient != address(0));\r\n        if (_supply == AllocationType.CREATOR) {\r\n            AVAILABLE_CREATOR_SUPPLY = AVAILABLE_CREATOR_SUPPLY.sub(_totalAllocated);\r\n            allocations[_recipient] = Allocation(uint8(AllocationType.CREATOR), 0, 0, _totalAllocated, 0);\r\n    } else if (_supply == AllocationType.AIRDROP) {\r\n        AVAILABLE_AIRDROP_SUPPLY = AVAILABLE_AIRDROP_SUPPLY.sub(_totalAllocated);\r\n        allocations[_recipient] = Allocation(uint8(AllocationType.AIRDROP), 0, 0, _totalAllocated, 0);\r\n    } else if (_supply == AllocationType.ADVISOR) {\r\n        AVAILABLE_ADVISOR_SUPPLY = AVAILABLE_ADVISOR_SUPPLY.sub(_totalAllocated);\r\n        allocations[_recipient] = Allocation(uint8(AllocationType.ADVISOR), 0, 0, _totalAllocated, 0);\r\n    } else if (_supply == AllocationType.PROMO) {\r\n        AVAILABLE_PROMO_SUPPLY = AVAILABLE_PROMO_SUPPLY.sub(_totalAllocated);\r\n        allocations[_recipient] = Allocation(uint8(AllocationType.PROMO), 0, 0, _totalAllocated, 0);\r\n    //} else if (_supply == AllocationType.BONUS1) {\r\n    //  AVAILABLE_BONUS1_SUPPLY = AVAILABLE_BONUS1_SUPPLY.sub(_totalAllocated);\r\n    //  allocations[_recipient] = Allocation(uint8(AllocationType.BONUS1), startTime + 1 years, startTime + 1 years, _totalAllocated, 0);\r\n    //} else if (_supply == AllocationType.BONUS2) {\r\n    //  AVAILABLE_BONUS2_SUPPLY = AVAILABLE_BONUS2_SUPPLY.sub(_totalAllocated);\r\n    //  allocations[_recipient] = Allocation(uint8(AllocationType.BONUS2), startTime + 2 years, startTime + 2 years, _totalAllocated, 0);\r\n    //} else if (_supply == AllocationType.BONUS3) {\r\n    //  AVAILABLE_BONUS3_SUPPLY = AVAILABLE_BONUS3_SUPPLY.sub(_totalAllocated);\r\n     // allocations[_recipient] = Allocation(uint8(AllocationType.BONUS3), startTime + 3 years, startTime + 3 years, _totalAllocated, 0);\r\n    }\r\n        AVAILABLE_TOTAL_SUPPLY = AVAILABLE_TOTAL_SUPPLY.sub(_totalAllocated);\r\n        emit LogNewAllocation(_recipient, _supply, _totalAllocated, grandTotalAllocated());\r\n    }\r\n\r\n  /**\r\n    * @dev Add an airdrop admin\r\n    */\r\n    function setAirdropAdmin(address _admin, bool _isAdmin) public onlyOwner {\r\n        airdropAdmins[_admin] = _isAdmin;\r\n    }\r\n\r\n  /**\r\n    * @dev perform a transfer of allocations\r\n    * @param _recipient is a list of recipients\r\n    */\r\n    function airdropTokens(address[] _recipient) public onlyOwnerOrAdmin {\r\n        require(now >= startTime);\r\n        uint airdropped;\r\n        for(uint256 i = 0; i<_recipient.length; i++)\r\n    {\r\n            if (!airdrops[_recipient[i]]) {\r\n                airdrops[_recipient[i]] = true;\r\n                require(ONLY.transfer(_recipient[i], 2 * decimalFactor));\r\n                airdropped = airdropped.add(2 * decimalFactor);\r\n        }\r\n        }\r\n        AVAILABLE_AIRDROP_SUPPLY = AVAILABLE_AIRDROP_SUPPLY.sub(airdropped);\r\n        AVAILABLE_TOTAL_SUPPLY = AVAILABLE_TOTAL_SUPPLY.sub(airdropped);\r\n        grandTotalClaimed = grandTotalClaimed.add(airdropped);\r\n    }\r\n\r\n  /**\r\n    * @dev Transfer a recipients available allocation to their address\r\n    * @param _recipient The address to withdraw tokens for\r\n    */\r\n    function transferTokens (address _recipient) public {\r\n        require(allocations[_recipient].amountClaimed < allocations[_recipient].totalAllocated);\r\n        require(now >= allocations[_recipient].endCliff);\r\n        require(now >= startTime);\r\n        uint256 newAmountClaimed;\r\n        if (allocations[_recipient].endVesting > now) {\r\n      // Transfer available amount based on vesting schedule and allocation\r\n            newAmountClaimed = allocations[_recipient].totalAllocated.mul(now.sub(startTime)).div(allocations[_recipient].endVesting.sub(startTime));\r\n    } else {\r\n      // Transfer total allocated (minus previously claimed tokens)\r\n            newAmountClaimed = allocations[_recipient].totalAllocated;\r\n    }\r\n        uint256 tokensToTransfer = newAmountClaimed.sub(allocations[_recipient].amountClaimed);\r\n        allocations[_recipient].amountClaimed = newAmountClaimed;\r\n        require(ONLY.transfer(_recipient, tokensToTransfer));\r\n        grandTotalClaimed = grandTotalClaimed.add(tokensToTransfer);\r\n        emit LogOnlyClaimed(_recipient, allocations[_recipient].AllocationSupply, tokensToTransfer, newAmountClaimed, grandTotalClaimed);\r\n    }\r\n\r\n  // Returns the amount of ONLY allocated\r\n    function grandTotalAllocated() public view returns (uint256) {\r\n        return INITIAL_SUPPLY - AVAILABLE_TOTAL_SUPPLY;\r\n    }\r\n\r\n  // Allow transfer of accidentally sent ERC20 tokens\r\n    function refundTokens(address _recipient, address _token) public onlyOwner {\r\n        require(_token != address(ONLY));\r\n        IERC20 token = IERC20(_token);\r\n        uint256 balance = token.balanceOf(this);\r\n        require(token.transfer(_recipient, balance));\r\n    }\r\n}\r\n",
  "sourcePath": "/home/ubuntu/ONLYToken/contracts/OnlyDistribution.sol",
  "compiler": {
    "name": "solc",
    "version": "0.4.21+commit.dfe3193c.Emscripten.clang"
  },
  "schemaVersion": "2.0.0",
  "updatedAt": "2018-05-10T02:12:20.643Z"
}