{
  "contractName": "Ownable",
  "abi": [
    {
      "constant": true,
      "inputs": [],
      "name": "owner",
      "outputs": [
        {
          "name": "",
          "type": "address"
        }
      ],
      "payable": false,
      "stateMutability": "view",
      "type": "function"
    },
    {
      "inputs": [],
      "payable": false,
      "stateMutability": "nonpayable",
      "type": "constructor"
    },
    {
      "anonymous": false,
      "inputs": [
        {
          "indexed": true,
          "name": "previousOwner",
          "type": "address"
        },
        {
          "indexed": true,
          "name": "newOwner",
          "type": "address"
        }
      ],
      "name": "OwnershipTransferred",
      "type": "event"
    },
    {
      "constant": false,
      "inputs": [
        {
          "name": "newOwner",
          "type": "address"
        }
      ],
      "name": "transferOwnership",
      "outputs": [],
      "payable": false,
      "stateMutability": "nonpayable",
      "type": "function"
    }
  ],
  "bytecode": "0x6060604052341561000f57600080fd5b60008054600160a060020a033316600160a060020a03199091161790556101768061003b6000396000f30060606040526004361061004b5763ffffffff7c01000000000000000000000000000000000000000000000000000000006000350416638da5cb5b8114610050578063f2fde38b1461007f575b600080fd5b341561005b57600080fd5b6100636100a0565b604051600160a060020a03909116815260200160405180910390f35b341561008a57600080fd5b61009e600160a060020a03600435166100af565b005b600054600160a060020a031681565b60005433600160a060020a039081169116146100ca57600080fd5b600160a060020a03811615156100df57600080fd5b600054600160a060020a0380831691167f8be0079c531659141344cd1fd0a4f28419497f9722a3daafe3b4186f6b6457e060405160405180910390a36000805473ffffffffffffffffffffffffffffffffffffffff1916600160a060020a03929092169190911790555600a165627a7a723058209c4b142805c183730019c7094761ae9ab1fae5271197437689e151dc2c6a7ad30029",
  "source": "pragma solidity ^0.4.18;\r\n\r\n/*\r\nCopyright (c) 2016 Smart Contract Solutions, Inc.\r\n\r\nPermission is hereby granted, free of charge, to any person obtaining\r\na copy of this software and associated documentation files (the\r\n\"Software\"), to deal in the Software without restriction, including\r\nwithout limitation the rights to use, copy, modify, merge, publish,\r\ndistribute, sublicense, and/or sell copies of the Software, and to\r\npermit persons to whom the Software is furnished to do so, subject to\r\nthe following conditions:\r\n\r\nThe above copyright notice and this permission notice shall be included\r\nin all copies or substantial portions of the Software.\r\n\r\nTHE SOFTWARE IS PROVIDED \"AS IS\", WITHOUT WARRANTY OF ANY KIND, EXPRESS\r\nOR IMPLIED, INCLUDING BUT NOT LIMITED TO THE WARRANTIES OF\r\nMERCHANTABILITY, FITNESS FOR A PARTICULAR PURPOSE AND NONINFRINGEMENT.\r\nIN NO EVENT SHALL THE AUTHORS OR COPYRIGHT HOLDERS BE LIABLE FOR ANY\r\nCLAIM, DAMAGES OR OTHER LIABILITY, WHETHER IN AN ACTION OF CONTRACT,\r\nTORT OR OTHERWISE, ARISING FROM, OUT OF OR IN CONNECTION WITH THE\r\nSOFTWARE OR THE USE OR OTHER DEALINGS IN THE SOFTWARE.\r\n*/\r\n\r\n/**\r\n * @title Ownable\r\n * @dev The Ownable contract has an owner address, and provides basic authorization control\r\n * functions, this simplifies the implementation of \"user permissions\".\r\n */\r\ncontract Ownable {\r\n    address public owner;\r\n\r\n    event OwnershipTransferred(address indexed previousOwner, address indexed newOwner);\r\n\r\n  /**\r\n   * @dev The Ownable constructor sets the original `owner` of the contract to the sender\r\n   * account.\r\n   */\r\n    function Ownable() public {\r\n        owner = msg.sender;\r\n    }\r\n \r\n  /**\r\n   * @dev Throws if called by any account other than the owner.\r\n   */\r\n    modifier onlyOwner() {\r\n        require(msg.sender == owner);\r\n        _;\r\n    }\r\n\r\n  /**\r\n   * @dev Allows the current owner to transfer control of the contract to a newOwner.\r\n   * @param newOwner The address to transfer ownership to.\r\n   */\r\n    function transferOwnership(address newOwner) public onlyOwner {\r\n        require(newOwner != address(0));\r\n        emit OwnershipTransferred(owner, newOwner);\r\n        owner = newOwner;\r\n    }\r\n\r\n}\r\n",
  "sourcePath": "/home/ubuntu/ONLYToken/contracts/Ownable.sol",
  "compiler": {
    "name": "solc",
    "version": "0.4.21+commit.dfe3193c.Emscripten.clang"
  },
  "schemaVersion": "2.0.0",
  "updatedAt": "2018-05-10T02:12:20.614Z"
}