{
  "contractName": "CobuDistribution",
  "abi": [
    {
      "constant": true,
      "inputs": [
        {
          "name": "",
          "type": "address"
        }
      ],
      "name": "airdropAdmins",
      "outputs": [
        {
          "name": "",
          "type": "bool"
        }
      ],
      "payable": false,
      "stateMutability": "view",
      "type": "function"
    },
    {
      "constant": true,
      "inputs": [],
      "name": "AVAILABLE_AIRDROP_SUPPLY",
      "outputs": [
        {
          "name": "",
          "type": "uint256"
        }
      ],
      "payable": false,
      "stateMutability": "view",
      "type": "function"
    },
    {
      "constant": true,
      "inputs": [],
      "name": "INITIAL_SUPPLY",
      "outputs": [
        {
          "name": "",
          "type": "uint256"
        }
      ],
      "payable": false,
      "stateMutability": "view",
      "type": "function"
    },
    {
      "constant": true,
      "inputs": [],
      "name": "AVAILABLE_CREATOR_SUPPLY",
      "outputs": [
        {
          "name": "",
          "type": "uint256"
        }
      ],
      "payable": false,
      "stateMutability": "view",
      "type": "function"
    },
    {
      "constant": true,
      "inputs": [
        {
          "name": "",
          "type": "address"
        }
      ],
      "name": "allocations",
      "outputs": [
        {
          "name": "AllocationSupply",
          "type": "uint8"
        },
        {
          "name": "endCliff",
          "type": "uint256"
        },
        {
          "name": "endVesting",
          "type": "uint256"
        },
        {
          "name": "totalAllocated",
          "type": "uint256"
        },
        {
          "name": "amountClaimed",
          "type": "uint256"
        }
      ],
      "payable": false,
      "stateMutability": "view",
      "type": "function"
    },
    {
      "constant": true,
      "inputs": [],
      "name": "startTime",
      "outputs": [
        {
          "name": "",
          "type": "uint256"
        }
      ],
      "payable": false,
      "stateMutability": "view",
      "type": "function"
    },
    {
      "constant": true,
      "inputs": [
        {
          "name": "",
          "type": "address"
        }
      ],
      "name": "airdrops",
      "outputs": [
        {
          "name": "",
          "type": "bool"
        }
      ],
      "payable": false,
      "stateMutability": "view",
      "type": "function"
    },
    {
      "constant": true,
      "inputs": [],
      "name": "owner",
      "outputs": [
        {
          "name": "",
          "type": "address"
        }
      ],
      "payable": false,
      "stateMutability": "view",
      "type": "function"
    },
    {
      "constant": true,
      "inputs": [],
      "name": "grandTotalClaimed",
      "outputs": [
        {
          "name": "",
          "type": "uint256"
        }
      ],
      "payable": false,
      "stateMutability": "view",
      "type": "function"
    },
    {
      "constant": true,
      "inputs": [],
      "name": "AVAILABLE_TOTAL_SUPPLY",
      "outputs": [
        {
          "name": "",
          "type": "uint256"
        }
      ],
      "payable": false,
      "stateMutability": "view",
      "type": "function"
    },
    {
      "constant": true,
      "inputs": [],
      "name": "COBU",
      "outputs": [
        {
          "name": "",
          "type": "address"
        }
      ],
      "payable": false,
      "stateMutability": "view",
      "type": "function"
    },
    {
      "constant": true,
      "inputs": [],
      "name": "AVAILABLE_PROMO_SUPPLY",
      "outputs": [
        {
          "name": "",
          "type": "uint256"
        }
      ],
      "payable": false,
      "stateMutability": "view",
      "type": "function"
    },
    {
      "constant": true,
      "inputs": [],
      "name": "AVAILABLE_ADVISOR_SUPPLY",
      "outputs": [
        {
          "name": "",
          "type": "uint256"
        }
      ],
      "payable": false,
      "stateMutability": "view",
      "type": "function"
    },
    {
      "constant": false,
      "inputs": [
        {
          "name": "newOwner",
          "type": "address"
        }
      ],
      "name": "transferOwnership",
      "outputs": [],
      "payable": false,
      "stateMutability": "nonpayable",
      "type": "function"
    },
    {
      "inputs": [
        {
          "name": "_startTime",
          "type": "uint256"
        }
      ],
      "payable": false,
      "stateMutability": "nonpayable",
      "type": "constructor"
    },
    {
      "anonymous": false,
      "inputs": [
        {
          "indexed": true,
          "name": "_recipient",
          "type": "address"
        },
        {
          "indexed": true,
          "name": "_fromSupply",
          "type": "uint8"
        },
        {
          "indexed": false,
          "name": "_totalAllocated",
          "type": "uint256"
        },
        {
          "indexed": false,
          "name": "_grandTotalAllocated",
          "type": "uint256"
        }
      ],
      "name": "LogNewAllocation",
      "type": "event"
    },
    {
      "anonymous": false,
      "inputs": [
        {
          "indexed": true,
          "name": "_recipient",
          "type": "address"
        },
        {
          "indexed": true,
          "name": "_fromSupply",
          "type": "uint8"
        },
        {
          "indexed": false,
          "name": "_amountClaimed",
          "type": "uint256"
        },
        {
          "indexed": false,
          "name": "_totalAllocated",
          "type": "uint256"
        },
        {
          "indexed": false,
          "name": "_grandTotalClaimed",
          "type": "uint256"
        }
      ],
      "name": "LogCobuClaimed",
      "type": "event"
    },
    {
      "anonymous": false,
      "inputs": [
        {
          "indexed": true,
          "name": "previousOwner",
          "type": "address"
        },
        {
          "indexed": true,
          "name": "newOwner",
          "type": "address"
        }
      ],
      "name": "OwnershipTransferred",
      "type": "event"
    },
    {
      "constant": false,
      "inputs": [
        {
          "name": "_recipient",
          "type": "address"
        },
        {
          "name": "_totalAllocated",
          "type": "uint256"
        },
        {
          "name": "_supply",
          "type": "uint8"
        }
      ],
      "name": "setAllocation",
      "outputs": [],
      "payable": false,
      "stateMutability": "nonpayable",
      "type": "function"
    },
    {
      "constant": false,
      "inputs": [
        {
          "name": "_admin",
          "type": "address"
        },
        {
          "name": "_isAdmin",
          "type": "bool"
        }
      ],
      "name": "setAirdropAdmin",
      "outputs": [],
      "payable": false,
      "stateMutability": "nonpayable",
      "type": "function"
    },
    {
      "constant": false,
      "inputs": [
        {
          "name": "_recipient",
          "type": "address[]"
        }
      ],
      "name": "airdropTokens",
      "outputs": [],
      "payable": false,
      "stateMutability": "nonpayable",
      "type": "function"
    },
    {
      "constant": false,
      "inputs": [
        {
          "name": "_recipient",
          "type": "address"
        }
      ],
      "name": "transferTokens",
      "outputs": [],
      "payable": false,
      "stateMutability": "nonpayable",
      "type": "function"
    },
    {
      "constant": true,
      "inputs": [],
      "name": "grandTotalAllocated",
      "outputs": [
        {
          "name": "",
          "type": "uint256"
        }
      ],
      "payable": false,
      "stateMutability": "view",
      "type": "function"
    },
    {
      "constant": false,
      "inputs": [
        {
          "name": "_recipient",
          "type": "address"
        },
        {
          "name": "_token",
          "type": "address"
        }
      ],
      "name": "refundTokens",
      "outputs": [],
      "payable": false,
      "stateMutability": "nonpayable",
      "type": "function"
    }
  ],
  "bytecode": "0x6080604052631dcd65006002556305f5e10060035562e4e1c06004556298968060055563165a0bc0600655600060075534801561003b57600080fd5b5060405160208062001a89833981016040525160008054600160a060020a03191633600160a060020a03161790554281101561007657600080fd5b6100b96006546100a66005546100a660045460035461012864010000000002610e42179091906401000000009004565b90640100000000610e4261012882021704565b600254146100c657600080fd5b6008819055306100d461013e565b600160a060020a03909116815260405190819003602001906000f080158015610101573d6000803e3d6000fd5b5060018054600160a060020a031916600160a060020a03929092169190911790555061014f565b60008282018381101561013757fe5b9392505050565b604051610aad8062000fdc83390190565b610e7d806200015f6000396000f3006080604052600436106100f85763ffffffff60e060020a6000350416630c89a0df81146100fd57806310e82384146101205780631435e39714610155578063162cbefe1461017f5780632b41a901146101a65780632ff2e9dc146101bb57806337348377146101d05780634ee51a27146101e557806352a9039c1461023a57806357f1935f1461028a57806378e97925146102b157806379aa024e146102c65780638c86f0a7146102ec5780638da5cb5b1461030d5780639377530f1461033e578063a92259fc14610353578063d11397ea14610368578063e744069c1461037d578063ed0e466514610392578063f2fde38b146103a7575b600080fd5b34801561010957600080fd5b5061011e600160a060020a03600435166103c8565b005b34801561012c57600080fd5b50610141600160a060020a0360043516610661565b604080519115158252519081900360200190f35b34801561016157600080fd5b5061011e600160a060020a036004351660243560ff60443516610676565b34801561018b57600080fd5b50610194610902565b60408051918252519081900360200190f35b3480156101b257600080fd5b50610194610908565b3480156101c757600080fd5b50610194610914565b3480156101dc57600080fd5b5061019461091c565b3480156101f157600080fd5b506040805160206004803580820135838102808601850190965280855261011e953695939460249493850192918291850190849080828437509497506109229650505050505050565b34801561024657600080fd5b5061025b600160a060020a0360043516610b12565b6040805160ff909616865260208601949094528484019290925260608401526080830152519081900360a00190f35b34801561029657600080fd5b5061011e600160a060020a0360043581169060243516610b45565b3480156102bd57600080fd5b50610194610cb4565b3480156102d257600080fd5b5061011e600160a060020a03600435166024351515610cba565b3480156102f857600080fd5b50610141600160a060020a0360043516610d00565b34801561031957600080fd5b50610322610d15565b60408051600160a060020a039092168252519081900360200190f35b34801561034a57600080fd5b50610194610d24565b34801561035f57600080fd5b50610194610d2a565b34801561037457600080fd5b50610322610d30565b34801561038957600080fd5b50610194610d3f565b34801561039e57600080fd5b50610194610d45565b3480156103b357600080fd5b5061011e600160a060020a0360043516610d4b565b600160a060020a038116600090815260096020526040812060038101546004909101548291116103f757600080fd5b600160a060020a03831660009081526009602052604090206001015442101561041f57600080fd5b60085442101561042e57600080fd5b600160a060020a0383166000908152600960205260409020600201544210156104d757600854600160a060020a0384166000908152600960205260409020600201546104d091610484919063ffffffff610de316565b6104c461049c60085442610de390919063ffffffff16565b600160a060020a0387166000908152600960205260409020600301549063ffffffff610df516565b9063ffffffff610e2b16565b91506104f6565b600160a060020a03831660009081526009602052604090206003015491505b600160a060020a03831660009081526009602052604090206004015461052390839063ffffffff610de316565b600160a060020a038085166000818152600960209081526040808320600490810189905560015482517fa9059cbb00000000000000000000000000000000000000000000000000000000815291820195909552602481018790529051959650929093169363a9059cbb936044808501949193918390030190829087803b1580156105ac57600080fd5b505af11580156105c0573d6000803e3d6000fd5b505050506040513d60208110156105d657600080fd5b505115156105e357600080fd5b6007546105f6908263ffffffff610e4216565b6007819055600160a060020a03841660008181526009602090815260409182902054825186815291820187905281830194909452905160ff909316927f77870e0824b9ed8fdd364316d2f0440fdc2ec2edb30db4ff0b80c7d7e81f4fe39181900360600190a3505050565b600a6020526000908152604090205460ff1681565b60005433600160a060020a0390811691161461069157600080fd5b600160a060020a0383166000908152600960205260409020600301541580156106ba5750600082115b15156106c557600080fd5b60008160038111156106d357fe5b101580156106ed575060038160038111156106ea57fe5b11155b15156106f857600080fd5b600160a060020a038316151561070d57600080fd5b600081600381111561071b57fe5b14156107ba57600354610734908363ffffffff610de316565b6003556040805160a081019091528060005b60ff908116825260006020808401829052604080850183905260608086018990526080958601849052600160a060020a038a16845260098352928190208651815460ff191695169490941784559085015160018401558401516002830155830151600382015591015160049091015561088f565b60028160038111156107c857fe5b14156107f7576005546107e1908363ffffffff610de316565b6005556040805160a08101909152806002610746565b600381600381111561080557fe5b141561088f5760065461081e908363ffffffff610de316565b6006556040805160a0810182526003808252600060208084018281528486018381526060860189815260808701858152600160a060020a038c1686526009909452969093209451855460ff191660ff9091161785555160018501559051600284015592519082015590516004909101555b6002546108a2908363ffffffff610de316565b6002558060038111156108b157fe5b83600160a060020a03167f1ee7c4bce4c301d0c55622a01f860f1b71b72f582250922fa662d173c32164ff846108e5610908565b6040805192835260208301919091528051918290030190a3505050565b60045481565b600254631dcd65000390565b631dcd650081565b60035481565b60008054819033600160a060020a039081169116148061095a5750600160a060020a0333166000908152600a602052604090205460ff165b151561096557600080fd5b60085442101561097457600080fd5b5060005b8251811015610acb57600b6000848381518110151561099357fe5b6020908102909101810151600160a060020a031682528101919091526040016000205460ff161515610ac3576001600b600085848151811015156109d357fe5b602090810291909101810151600160a060020a03908116835290820192909252604001600020805460ff191692151592909217909155600154845191169063a9059cbb90859084908110610a2357fe5b60209081029091018101516040805160e060020a63ffffffff8616028152600160a060020a0390921660048301526103e8602483015251604480830193928290030181600087803b158015610a7757600080fd5b505af1158015610a8b573d6000803e3d6000fd5b505050506040513d6020811015610aa157600080fd5b50511515610aae57600080fd5b610ac0826103e863ffffffff610e4216565b91505b600101610978565b600454610ade908363ffffffff610de316565b600455600254610af4908363ffffffff610de316565b600255600754610b0a908363ffffffff610e4216565b600755505050565b6009602052600090815260409020805460018201546002830154600384015460049094015460ff90931693919290919085565b60008054819033600160a060020a03908116911614610b6357600080fd5b600154600160a060020a0384811691161415610b7e57600080fd5b82915081600160a060020a03166370a08231306040518263ffffffff1660e060020a0281526004018082600160a060020a0316600160a060020a03168152602001915050602060405180830381600087803b158015610bdc57600080fd5b505af1158015610bf0573d6000803e3d6000fd5b505050506040513d6020811015610c0657600080fd5b5051604080517fa9059cbb000000000000000000000000000000000000000000000000000000008152600160a060020a0387811660048301526024820184905291519293509084169163a9059cbb916044808201926020929091908290030181600087803b158015610c7757600080fd5b505af1158015610c8b573d6000803e3d6000fd5b505050506040513d6020811015610ca157600080fd5b50511515610cae57600080fd5b50505050565b60085481565b60005433600160a060020a03908116911614610cd557600080fd5b600160a060020a03919091166000908152600a60205260409020805460ff1916911515919091179055565b600b6020526000908152604090205460ff1681565b600054600160a060020a031681565b60075481565b60025481565b600154600160a060020a031681565b60065481565b60055481565b60005433600160a060020a03908116911614610d6657600080fd5b600160a060020a0381161515610d7b57600080fd5b60008054604051600160a060020a03808516939216917f8be0079c531659141344cd1fd0a4f28419497f9722a3daafe3b4186f6b6457e091a36000805473ffffffffffffffffffffffffffffffffffffffff1916600160a060020a0392909216919091179055565b600082821115610def57fe5b50900390565b600080831515610e085760009150610e24565b50828202828482811515610e1857fe5b0414610e2057fe5b8091505b5092915050565b6000808284811515610e3957fe5b04949350505050565b600082820183811015610e2057fe00a165627a7a72305820a14517520026556d0f3fa5b809f9961a6d80d138e4438856479589ea2bf33385002960c0604052600760808190527f436f696e6275670000000000000000000000000000000000000000000000000060a090815261003e9160009190610113565b506040805180820190915260048082527f434f425500000000000000000000000000000000000000000000000000000000602090920191825261008391600191610113565b5034801561009057600080fd5b50604051602080610aad8339810160405251600160a060020a03811615156100b757600080fd5b600160a060020a0381166000818152600260209081526040808320631dcd650090819055815190815290517fddf252ad1be2c89b69c2b068fc378daa952ba7f163c4a11628f55a4df523b3ef929181900390910190a3506101ae565b828054600181600116156101000203166002900490600052602060002090601f016020900481019282601f1061015457805160ff1916838001178555610181565b82800160010185558215610181579182015b82811115610181578251825591602001919060010190610166565b5061018d929150610191565b5090565b6101ab91905b8082111561018d5760008155600101610197565b90565b6108f0806101bd6000396000f3006080604052600436106100b95763ffffffff7c010000000000000000000000000000000000000000000000000000000060003504166306fdde0381146100be578063095ea7b31461014857806318160ddd1461018057806323b872dd146101a7578063313ce567146101d157806366188463146101fc5780636d6a6a4d1461022057806370a082311461023557806395d89b4114610256578063a9059cbb1461026b578063d73dd6231461028f578063dd62ed3e146102b3575b600080fd5b3480156100ca57600080fd5b506100d36102da565b6040805160208082528351818301528351919283929083019185019080838360005b8381101561010d5781810151838201526020016100f5565b50505050905090810190601f16801561013a5780820380516001836020036101000a031916815260200191505b509250505060405180910390f35b34801561015457600080fd5b5061016c600160a060020a0360043516602435610368565b604080519115158252519081900360200190f35b34801561018c57600080fd5b506101956103d2565b60408051918252519081900360200190f35b3480156101b357600080fd5b5061016c600160a060020a03600435811690602435166044356103da565b3480156101dd57600080fd5b506101e661055c565b6040805160ff9092168252519081900360200190f35b34801561020857600080fd5b5061016c600160a060020a0360043516602435610561565b34801561022c57600080fd5b5061019561065a565b34801561024157600080fd5b50610195600160a060020a036004351661065f565b34801561026257600080fd5b506100d361067a565b34801561027757600080fd5b5061016c600160a060020a03600435166024356106d4565b34801561029b57600080fd5b5061016c600160a060020a03600435166024356107cf565b3480156102bf57600080fd5b50610195600160a060020a0360043581169060243516610871565b6000805460408051602060026001851615610100026000190190941693909304601f810184900484028201840190925281815292918301828280156103605780601f1061033557610100808354040283529160200191610360565b820191906000526020600020905b81548152906001019060200180831161034357829003601f168201915b505050505081565b600160a060020a03338116600081815260036020908152604080832094871680845294825280832086905580518681529051929493927f8c5be1e5ebec7d5bd14f71427d1e84f3dd0314c0f7b2291e5b200ac8c7c3b925929181900390910190a350600192915050565b631dcd650081565b6000600160a060020a03831615156103f157600080fd5b600160a060020a03841660009081526002602052604090205482111561041657600080fd5b600160a060020a038085166000908152600360209081526040808320339094168352929052205482111561044957600080fd5b600160a060020a038416600090815260026020526040902054610472908363ffffffff61089c16565b600160a060020a0380861660009081526002602052604080822093909355908516815220546104a7908363ffffffff6108ae16565b600160a060020a038085166000908152600260209081526040808320949094558783168252600381528382203390931682529190915220546104ef908363ffffffff61089c16565b600160a060020a038086166000818152600360209081526040808320338616845282529182902094909455805186815290519287169391927fddf252ad1be2c89b69c2b068fc378daa952ba7f163c4a11628f55a4df523b3ef929181900390910190a35060019392505050565b600081565b600160a060020a033381166000908152600360209081526040808320938616835292905290812054808311156105be57600160a060020a0333811660009081526003602090815260408083209388168352929052908120556105f5565b6105ce818463ffffffff61089c16565b600160a060020a033381166000908152600360209081526040808320938916835292905220555b600160a060020a0333811660008181526003602090815260408083209489168084529482529182902054825190815291517f8c5be1e5ebec7d5bd14f71427d1e84f3dd0314c0f7b2291e5b200ac8c7c3b9259281900390910190a35060019392505050565b600181565b600160a060020a031660009081526002602052604090205490565b60018054604080516020600284861615610100026000190190941693909304601f810184900484028201840190925281815292918301828280156103605780601f1061033557610100808354040283529160200191610360565b6000600160a060020a03831615156106eb57600080fd5b600160a060020a03331660009081526002602052604090205482111561071057600080fd5b600160a060020a033316600090815260026020526040902054610739908363ffffffff61089c16565b600160a060020a03338116600090815260026020526040808220939093559085168152205461076e908363ffffffff6108ae16565b600160a060020a038085166000818152600260209081526040918290209490945580518681529051919333909316927fddf252ad1be2c89b69c2b068fc378daa952ba7f163c4a11628f55a4df523b3ef92918290030190a350600192915050565b600160a060020a033381166000908152600360209081526040808320938616835292905290812054610807908363ffffffff6108ae16565b600160a060020a0333811660008181526003602090815260408083209489168084529482529182902085905581519485529051929391927f8c5be1e5ebec7d5bd14f71427d1e84f3dd0314c0f7b2291e5b200ac8c7c3b9259281900390910190a350600192915050565b600160a060020a03918216600090815260036020908152604080832093909416825291909152205490565b6000828211156108a857fe5b50900390565b6000828201838110156108bd57fe5b93925050505600a165627a7a723058207a1c77074ea69f32eb9b76acb71c14ebd22980da8913abd11ecf626390b41a660029",
  "source": "pragma solidity ^0.4.18;\r\n\r\nimport \"./interfaces/IERC20.sol\";\r\nimport \"./CobuToken.sol\";\r\nimport \"./SafeMath.sol\";\r\nimport \"./Ownable.sol\";\r\n\r\n/**\r\n * @title COBU token initial distribution\r\n *\r\n * @dev Distribute allocated tokens\r\n */\r\ncontract CobuDistribution is Ownable {\r\n    using SafeMath for uint256;\r\n\r\n    CobuToken public COBU;\r\n\r\n    uint256 private constant decimalFactor = 10**uint256(0);\r\n    enum AllocationType { CREATOR, AIRDROP, ADVISOR, PROMO }\r\n    uint256 public constant INITIAL_SUPPLY   = 500000000 * decimalFactor;\r\n    uint256 public AVAILABLE_TOTAL_SUPPLY    = 500000000 * decimalFactor;\r\n    uint256 public AVAILABLE_CREATOR_SUPPLY  = 100000000 * decimalFactor; // 100% Released at Token Distribution (TD)\r\n    uint256 public AVAILABLE_AIRDROP_SUPPLY  =  15000000 * decimalFactor; // 100% released at token Distribution (TD)\r\n    uint256 public AVAILABLE_ADVISOR_SUPPLY  =  10000000 * decimalFactor; // 100% Released at TD\r\n    uint256 public AVAILABLE_PROMO_SUPPLY    = 375000000 * decimalFactor; // 100% Released at TD\r\n  //uint256 public AVAILABLE_RESERVE_SUPPLY  =  513116658 * decimalFactor; // 6.8% Released at TD +100 days -> 100% at TD +4 years\r\n  //uint256 public AVAILABLE_BONUS1_SUPPLY  =    39053330 * decimalFactor; // 100% Released at TD +1 year\r\n  //uint256 public AVAILABLE_BONUS2_SUPPLY  =     9354408 * decimalFactor; // 100% Released at TD +2 years\r\n  //uint256 public AVAILABLE_BONUS3_SUPPLY  =    28475604 * decimalFactor; // 100% Released at TD +3 years\r\n\r\n    uint256 public grandTotalClaimed = 0;\r\n    uint256 public startTime;\r\n\r\n  // Allocation with vesting information\r\n    struct Allocation {\r\n        uint8 AllocationSupply; // Type of allocation\r\n        uint256 endCliff;       // Tokens are locked until\r\n        uint256 endVesting;     // This is when the tokens are fully unvested\r\n        uint256 totalAllocated; // Total tokens allocated\r\n        uint256 amountClaimed;  // Total tokens claimed\r\n    }\r\n    mapping (address => Allocation) public allocations;\r\n\r\n  // List of admins\r\n    mapping (address => bool) public airdropAdmins;\r\n\r\n  // Keeps track of whether or not a COBU airdrop has been made to a particular address\r\n    mapping (address => bool) public airdrops;\r\n\r\n    modifier onlyOwnerOrAdmin() {\r\n        require(msg.sender == owner || airdropAdmins[msg.sender]);\r\n        _;\r\n    }\r\n\r\n    event LogNewAllocation(address indexed _recipient, AllocationType indexed _fromSupply, uint256 _totalAllocated, uint256 _grandTotalAllocated);\r\n    event LogCobuClaimed(address indexed _recipient, uint8 indexed _fromSupply, uint256 _amountClaimed, uint256 _totalAllocated, uint256 _grandTotalClaimed);\r\n\r\n  /**\r\n    * @dev Constructor function - Set the cobu token address\r\n    * @param _startTime The time when CobuDistribution goes live\r\n    */\r\n    function CobuDistribution(uint256 _startTime) public {\r\n        require(_startTime >= now);\r\n        require(AVAILABLE_TOTAL_SUPPLY == AVAILABLE_CREATOR_SUPPLY.add(AVAILABLE_AIRDROP_SUPPLY).add(AVAILABLE_ADVISOR_SUPPLY).add(AVAILABLE_PROMO_SUPPLY));\r\n        startTime = _startTime;\r\n        COBU = new CobuToken(this);\r\n    }\r\n\r\n  /**\r\n    * @dev Allow the owner of the contract to assign a new allocation\r\n    * @param _recipient The recipient of the allocation\r\n    * @param _totalAllocated The total amount of COBU available to the receipient (after vesting)\r\n    * @param _supply The COBU supply the allocation will be taken from\r\n    */\r\n    function setAllocation (address _recipient, uint256 _totalAllocated, AllocationType _supply) onlyOwner public {\r\n        require(allocations[_recipient].totalAllocated == 0 && _totalAllocated > 0);\r\n        require(_supply >= AllocationType.CREATOR && _supply <= AllocationType.PROMO);\r\n        require(_recipient != address(0));\r\n        if (_supply == AllocationType.CREATOR) {\r\n            AVAILABLE_CREATOR_SUPPLY = AVAILABLE_CREATOR_SUPPLY.sub(_totalAllocated);\r\n            allocations[_recipient] = Allocation(uint8(AllocationType.CREATOR), 0, 0, _totalAllocated, 0);\r\n    } else if (_supply == AllocationType.ADVISOR) {\r\n        AVAILABLE_ADVISOR_SUPPLY = AVAILABLE_ADVISOR_SUPPLY.sub(_totalAllocated);\r\n        allocations[_recipient] = Allocation(uint8(AllocationType.ADVISOR), 0, 0, _totalAllocated, 0);\r\n    } else if (_supply == AllocationType.PROMO) {\r\n        AVAILABLE_PROMO_SUPPLY = AVAILABLE_PROMO_SUPPLY.sub(_totalAllocated);\r\n        allocations[_recipient] = Allocation(uint8(AllocationType.PROMO), 0, 0, _totalAllocated, 0);\r\n    //} else if (_supply == AllocationType.BONUS1) {\r\n    //  AVAILABLE_BONUS1_SUPPLY = AVAILABLE_BONUS1_SUPPLY.sub(_totalAllocated);\r\n    //  allocations[_recipient] = Allocation(uint8(AllocationType.BONUS1), startTime + 1 years, startTime + 1 years, _totalAllocated, 0);\r\n    //} else if (_supply == AllocationType.BONUS2) {\r\n    //  AVAILABLE_BONUS2_SUPPLY = AVAILABLE_BONUS2_SUPPLY.sub(_totalAllocated);\r\n    //  allocations[_recipient] = Allocation(uint8(AllocationType.BONUS2), startTime + 2 years, startTime + 2 years, _totalAllocated, 0);\r\n    //} else if (_supply == AllocationType.BONUS3) {\r\n    //  AVAILABLE_BONUS3_SUPPLY = AVAILABLE_BONUS3_SUPPLY.sub(_totalAllocated);\r\n     // allocations[_recipient] = Allocation(uint8(AllocationType.BONUS3), startTime + 3 years, startTime + 3 years, _totalAllocated, 0);\r\n    }\r\n        AVAILABLE_TOTAL_SUPPLY = AVAILABLE_TOTAL_SUPPLY.sub(_totalAllocated);\r\n        emit LogNewAllocation(_recipient, _supply, _totalAllocated, grandTotalAllocated());\r\n    }\r\n\r\n  /**\r\n    * @dev Add an airdrop admin\r\n    */\r\n    function setAirdropAdmin(address _admin, bool _isAdmin) public onlyOwner {\r\n        airdropAdmins[_admin] = _isAdmin;\r\n    }\r\n\r\n  /**\r\n    * @dev perform a transfer of allocations\r\n    * @param _recipient is a list of recipients\r\n    */\r\n    function airdropTokens(address[] _recipient) public onlyOwnerOrAdmin {\r\n        require(now >= startTime);\r\n        uint airdropped;\r\n        for(uint256 i = 0; i<_recipient.length; i++)\r\n    {\r\n            if (!airdrops[_recipient[i]]) {\r\n                airdrops[_recipient[i]] = true;\r\n                require(COBU.transfer(_recipient[i], 1000 * decimalFactor));\r\n                airdropped = airdropped.add(1000 * decimalFactor);\r\n        }\r\n        }\r\n        AVAILABLE_AIRDROP_SUPPLY = AVAILABLE_AIRDROP_SUPPLY.sub(airdropped);\r\n        AVAILABLE_TOTAL_SUPPLY = AVAILABLE_TOTAL_SUPPLY.sub(airdropped);\r\n        grandTotalClaimed = grandTotalClaimed.add(airdropped);\r\n    }\r\n\r\n  /**\r\n    * @dev Transfer a recipients available allocation to their address\r\n    * @param _recipient The address to withdraw tokens for\r\n    */\r\n    function transferTokens (address _recipient) public {\r\n        require(allocations[_recipient].amountClaimed < allocations[_recipient].totalAllocated);\r\n        require(now >= allocations[_recipient].endCliff);\r\n        require(now >= startTime);\r\n        uint256 newAmountClaimed;\r\n        if (allocations[_recipient].endVesting > now) {\r\n      // Transfer available amount based on vesting schedule and allocation\r\n            newAmountClaimed = allocations[_recipient].totalAllocated.mul(now.sub(startTime)).div(allocations[_recipient].endVesting.sub(startTime));\r\n    } else {\r\n      // Transfer total allocated (minus previously claimed tokens)\r\n            newAmountClaimed = allocations[_recipient].totalAllocated;\r\n    }\r\n        uint256 tokensToTransfer = newAmountClaimed.sub(allocations[_recipient].amountClaimed);\r\n        allocations[_recipient].amountClaimed = newAmountClaimed;\r\n        require(COBU.transfer(_recipient, tokensToTransfer));\r\n        grandTotalClaimed = grandTotalClaimed.add(tokensToTransfer);\r\n        emit LogCobuClaimed(_recipient, allocations[_recipient].AllocationSupply, tokensToTransfer, newAmountClaimed, grandTotalClaimed);\r\n    }\r\n\r\n  // Returns the amount of COBU allocated\r\n    function grandTotalAllocated() public view returns (uint256) {\r\n        return INITIAL_SUPPLY - AVAILABLE_TOTAL_SUPPLY;\r\n    }\r\n\r\n  // Allow transfer of accidentally sent ERC20 tokens\r\n    function refundTokens(address _recipient, address _token) public onlyOwner {\r\n        require(_token != address(COBU));\r\n        IERC20 token = IERC20(_token);\r\n        uint256 balance = token.balanceOf(this);\r\n        require(token.transfer(_recipient, balance));\r\n    }\r\n}\r\n",
  "sourcePath": "/home/ubuntu/COBUToken/contracts/CobuDistribution.sol",
  "compiler": {
    "name": "solc",
    "version": "0.4.23+commit.124ca40d.Emscripten.clang"
  },
  "schemaVersion": "2.0.0",
  "updatedAt": "2018-05-14T17:14:46.730Z"
}