{
  "contractName": "AkyuDistribution",
  "abi": [
    {
      "constant": true,
      "inputs": [],
      "name": "AVAILABLE_EMISSION1_SUPPLY",
      "outputs": [
        {
          "name": "",
          "type": "uint256"
        }
      ],
      "payable": false,
      "stateMutability": "view",
      "type": "function"
    },
    {
      "constant": true,
      "inputs": [
        {
          "name": "",
          "type": "address"
        }
      ],
      "name": "airdropAdmins",
      "outputs": [
        {
          "name": "",
          "type": "bool"
        }
      ],
      "payable": false,
      "stateMutability": "view",
      "type": "function"
    },
    {
      "constant": true,
      "inputs": [],
      "name": "AVAILABLE_AIRDROP_SUPPLY",
      "outputs": [
        {
          "name": "",
          "type": "uint256"
        }
      ],
      "payable": false,
      "stateMutability": "view",
      "type": "function"
    },
    {
      "constant": true,
      "inputs": [],
      "name": "AVAILABLE_PROMOTION_SUPPLY",
      "outputs": [
        {
          "name": "",
          "type": "uint256"
        }
      ],
      "payable": false,
      "stateMutability": "view",
      "type": "function"
    },
    {
      "constant": true,
      "inputs": [],
      "name": "AVAILABLE_EMISSION2_SUPPLY",
      "outputs": [
        {
          "name": "",
          "type": "uint256"
        }
      ],
      "payable": false,
      "stateMutability": "view",
      "type": "function"
    },
    {
      "constant": true,
      "inputs": [],
      "name": "INITIAL_SUPPLY",
      "outputs": [
        {
          "name": "",
          "type": "uint256"
        }
      ],
      "payable": false,
      "stateMutability": "view",
      "type": "function"
    },
    {
      "constant": true,
      "inputs": [],
      "name": "AVAILABLE_FOUNDER_SUPPLY",
      "outputs": [
        {
          "name": "",
          "type": "uint256"
        }
      ],
      "payable": false,
      "stateMutability": "view",
      "type": "function"
    },
    {
      "constant": true,
      "inputs": [],
      "name": "AVAILABLE_PREORDER_SUPPLY",
      "outputs": [
        {
          "name": "",
          "type": "uint256"
        }
      ],
      "payable": false,
      "stateMutability": "view",
      "type": "function"
    },
    {
      "constant": true,
      "inputs": [
        {
          "name": "",
          "type": "address"
        }
      ],
      "name": "allocations",
      "outputs": [
        {
          "name": "AllocationSupply",
          "type": "uint8"
        },
        {
          "name": "endCliff",
          "type": "uint256"
        },
        {
          "name": "endVesting",
          "type": "uint256"
        },
        {
          "name": "totalAllocated",
          "type": "uint256"
        },
        {
          "name": "amountClaimed",
          "type": "uint256"
        }
      ],
      "payable": false,
      "stateMutability": "view",
      "type": "function"
    },
    {
      "constant": true,
      "inputs": [],
      "name": "startTime",
      "outputs": [
        {
          "name": "",
          "type": "uint256"
        }
      ],
      "payable": false,
      "stateMutability": "view",
      "type": "function"
    },
    {
      "constant": true,
      "inputs": [
        {
          "name": "",
          "type": "address"
        }
      ],
      "name": "airdrops",
      "outputs": [
        {
          "name": "",
          "type": "bool"
        }
      ],
      "payable": false,
      "stateMutability": "view",
      "type": "function"
    },
    {
      "constant": true,
      "inputs": [],
      "name": "owner",
      "outputs": [
        {
          "name": "",
          "type": "address"
        }
      ],
      "payable": false,
      "stateMutability": "view",
      "type": "function"
    },
    {
      "constant": true,
      "inputs": [],
      "name": "grandTotalClaimed",
      "outputs": [
        {
          "name": "",
          "type": "uint256"
        }
      ],
      "payable": false,
      "stateMutability": "view",
      "type": "function"
    },
    {
      "constant": true,
      "inputs": [],
      "name": "AKYU",
      "outputs": [
        {
          "name": "",
          "type": "address"
        }
      ],
      "payable": false,
      "stateMutability": "view",
      "type": "function"
    },
    {
      "constant": true,
      "inputs": [],
      "name": "AVAILABLE_TOTAL_SUPPLY",
      "outputs": [
        {
          "name": "",
          "type": "uint256"
        }
      ],
      "payable": false,
      "stateMutability": "view",
      "type": "function"
    },
    {
      "constant": true,
      "inputs": [],
      "name": "AVAILABLE_EMISSION3_SUPPLY",
      "outputs": [
        {
          "name": "",
          "type": "uint256"
        }
      ],
      "payable": false,
      "stateMutability": "view",
      "type": "function"
    },
    {
      "constant": true,
      "inputs": [],
      "name": "AVAILABLE_ADVISOR_SUPPLY",
      "outputs": [
        {
          "name": "",
          "type": "uint256"
        }
      ],
      "payable": false,
      "stateMutability": "view",
      "type": "function"
    },
    {
      "constant": false,
      "inputs": [
        {
          "name": "newOwner",
          "type": "address"
        }
      ],
      "name": "transferOwnership",
      "outputs": [],
      "payable": false,
      "stateMutability": "nonpayable",
      "type": "function"
    },
    {
      "inputs": [
        {
          "name": "_startTime",
          "type": "uint256"
        }
      ],
      "payable": false,
      "stateMutability": "nonpayable",
      "type": "constructor"
    },
    {
      "anonymous": false,
      "inputs": [
        {
          "indexed": true,
          "name": "_recipient",
          "type": "address"
        },
        {
          "indexed": true,
          "name": "_fromSupply",
          "type": "uint8"
        },
        {
          "indexed": false,
          "name": "_totalAllocated",
          "type": "uint256"
        },
        {
          "indexed": false,
          "name": "_grandTotalAllocated",
          "type": "uint256"
        }
      ],
      "name": "LogNewAllocation",
      "type": "event"
    },
    {
      "anonymous": false,
      "inputs": [
        {
          "indexed": true,
          "name": "_recipient",
          "type": "address"
        },
        {
          "indexed": true,
          "name": "_fromSupply",
          "type": "uint8"
        },
        {
          "indexed": false,
          "name": "_amountClaimed",
          "type": "uint256"
        },
        {
          "indexed": false,
          "name": "_totalAllocated",
          "type": "uint256"
        },
        {
          "indexed": false,
          "name": "_grandTotalClaimed",
          "type": "uint256"
        }
      ],
      "name": "LogAkyuClaimed",
      "type": "event"
    },
    {
      "anonymous": false,
      "inputs": [
        {
          "indexed": true,
          "name": "previousOwner",
          "type": "address"
        },
        {
          "indexed": true,
          "name": "newOwner",
          "type": "address"
        }
      ],
      "name": "OwnershipTransferred",
      "type": "event"
    },
    {
      "constant": false,
      "inputs": [
        {
          "name": "_recipient",
          "type": "address"
        },
        {
          "name": "_totalAllocated",
          "type": "uint256"
        },
        {
          "name": "_supply",
          "type": "uint8"
        }
      ],
      "name": "setAllocation",
      "outputs": [],
      "payable": false,
      "stateMutability": "nonpayable",
      "type": "function"
    },
    {
      "constant": false,
      "inputs": [
        {
          "name": "_admin",
          "type": "address"
        },
        {
          "name": "_isAdmin",
          "type": "bool"
        }
      ],
      "name": "setAirdropAdmin",
      "outputs": [],
      "payable": false,
      "stateMutability": "nonpayable",
      "type": "function"
    },
    {
      "constant": false,
      "inputs": [
        {
          "name": "_recipient",
          "type": "address[]"
        }
      ],
      "name": "airdropTokens",
      "outputs": [],
      "payable": false,
      "stateMutability": "nonpayable",
      "type": "function"
    },
    {
      "constant": false,
      "inputs": [
        {
          "name": "_recipient",
          "type": "address"
        }
      ],
      "name": "transferTokens",
      "outputs": [],
      "payable": false,
      "stateMutability": "nonpayable",
      "type": "function"
    },
    {
      "constant": true,
      "inputs": [],
      "name": "grandTotalAllocated",
      "outputs": [
        {
          "name": "",
          "type": "uint256"
        }
      ],
      "payable": false,
      "stateMutability": "view",
      "type": "function"
    },
    {
      "constant": false,
      "inputs": [
        {
          "name": "_recipient",
          "type": "address"
        },
        {
          "name": "_token",
          "type": "address"
        }
      ],
      "name": "refundTokens",
      "outputs": [],
      "payable": false,
      "stateMutability": "nonpayable",
      "type": "function"
    }
  ],
  "bytecode": "0x60806040526a52b7d2dcc80cd2e400000060025569d3c21bcecceda10000006003556a0c685fa11e01ec6f000000600481905560058190556006556a13da329b633647180000006007556a084595161401484a00000060088190556009819055600a556000600b553480156200007457600080fd5b5060405160208062001dc3833981016040525160008054600160a060020a0319163317905542811015620000a757600080fd5b6200010d600754620000f8600a54620000f8600954620000f8600854620000f8600654620000f8600554620000f8600454600354620001816401000000000262001144179091906401000000009004565b90640100000000620011446200018182021704565b600254146200011b57600080fd5b600c819055306200012b62000198565b600160a060020a03909116815260405190819003602001906000f08015801562000159573d6000803e3d6000fd5b5060018054600160a060020a031916600160a060020a039290921691909117905550620001a9565b6000828201838110156200019157fe5b9392505050565b604051610a8b806200133883390190565b61117f80620001b96000396000f30060806040526004361061013d5763ffffffff7c010000000000000000000000000000000000000000000000000000000060003504166308c4bc0881146101425780630c89a0df1461016957806310e823841461018c5780631435e397146101c1578063162cbefe146101eb578063193cf596146102005780631ab89618146102155780632b41a9011461022a5780632ff2e9dc1461023f57806334ac6f5e146102545780634ecd67b3146102695780634ee51a271461027e57806352a9039c146102d357806357f1935f1461032357806378e979251461034a57806379aa024e1461035f5780638c86f0a7146103855780638da5cb5b146103a65780639377530f146103d75780639b90eb48146103ec578063a92259fc14610401578063dc40bb5314610416578063ed0e46651461042b578063f2fde38b14610440575b600080fd5b34801561014e57600080fd5b50610157610461565b60408051918252519081900360200190f35b34801561017557600080fd5b5061018a600160a060020a0360043516610467565b005b34801561019857600080fd5b506101ad600160a060020a0360043516610700565b604080519115158252519081900360200190f35b3480156101cd57600080fd5b5061018a600160a060020a036004351660243560ff60443516610715565b3480156101f757600080fd5b50610157610bd0565b34801561020c57600080fd5b50610157610bd6565b34801561022157600080fd5b50610157610bdc565b34801561023657600080fd5b50610157610be2565b34801561024b57600080fd5b50610157610bf5565b34801561026057600080fd5b50610157610c04565b34801561027557600080fd5b50610157610c0a565b34801561028a57600080fd5b506040805160206004803580820135838102808601850190965280855261018a95369593946024949385019291829185019084908082843750949750610c109650505050505050565b3480156102df57600080fd5b506102f4600160a060020a0360043516610e1a565b6040805160ff909616865260208601949094528484019290925260608401526080830152519081900360a00190f35b34801561032f57600080fd5b5061018a600160a060020a0360043581169060243516610e4d565b34801561035657600080fd5b50610157610fbe565b34801561036b57600080fd5b5061018a600160a060020a03600435166024351515610fc4565b34801561039157600080fd5b506101ad600160a060020a0360043516611006565b3480156103b257600080fd5b506103bb61101b565b60408051600160a060020a039092168252519081900360200190f35b3480156103e357600080fd5b5061015761102a565b3480156103f857600080fd5b506103bb611030565b34801561040d57600080fd5b5061015761103f565b34801561042257600080fd5b50610157611045565b34801561043757600080fd5b5061015761104b565b34801561044c57600080fd5b5061018a600160a060020a0360043516611051565b60085481565b600160a060020a0381166000908152600d60205260408120600381015460049091015482911161049657600080fd5b600160a060020a0383166000908152600d60205260409020600101544210156104be57600080fd5b600c544210156104cd57600080fd5b600160a060020a0383166000908152600d602052604090206002015442101561057657600c54600160a060020a0384166000908152600d602052604090206002015461056f91610523919063ffffffff6110e516565b61056361053b600c54426110e590919063ffffffff16565b600160a060020a0387166000908152600d60205260409020600301549063ffffffff6110f716565b9063ffffffff61112d16565b9150610595565b600160a060020a0383166000908152600d602052604090206003015491505b600160a060020a0383166000908152600d60205260409020600401546105c290839063ffffffff6110e516565b600160a060020a038085166000818152600d60209081526040808320600490810189905560015482517fa9059cbb00000000000000000000000000000000000000000000000000000000815291820195909552602481018790529051959650929093169363a9059cbb936044808501949193918390030190829087803b15801561064b57600080fd5b505af115801561065f573d6000803e3d6000fd5b505050506040513d602081101561067557600080fd5b5051151561068257600080fd5b600b54610695908263ffffffff61114416565b600b819055600160a060020a0384166000818152600d602090815260409182902054825186815291820187905281830194909452905160ff909316927ff228fe401f9a76d2037462538e48bd981c519e1598d1ac901bc96da4e996affa9181900360600190a3505050565b600e6020526000908152604090205460ff1681565b600054600160a060020a0316331461072c57600080fd5b600160a060020a0383166000908152600d60205260409020600301541580156107555750600082115b151561076057600080fd5b600081600781111561076e57fe5b101580156107885750600781600781111561078557fe5b11155b151561079357600080fd5b600160a060020a03831615156107a857600080fd5b60008160078111156107b657fe5b1415610846576003546107cf908363ffffffff6110e516565b60039081556040805160a081018252600080825260208083018281528385018381526060850189815260808601858152600160a060020a038c168652600d909452959093209351845460ff191660ff9091161784555160018401559051600283015591519281019290925551600490910155610b5d565b600181600781111561085457fe5b14156108f85760045461086d908363ffffffff6110e516565b6004556040805160a081019091528060015b60ff9081168252600c546020808401919091526000604080850182905260608086018990526080958601839052600160a060020a038a168352600d8452918190208651815460ff191695169490941784559185015160018401559084015160028301558301516003820155910151600490910155610b5d565b600381600781111561090657fe5b14156109355760065461091f908363ffffffff6110e516565b6006556040805160a0810190915280600361087f565b600481600781111561094357fe5b14156109725760075461095c908363ffffffff6110e516565b6007556040805160a0810190915280600461087f565b600581600781111561098057fe5b1415610a1757600854610999908363ffffffff6110e516565b6008556040805160a08101825260058152600c5462278d0001602080830191825260008385018181526060850188815260808601838152600160a060020a038b168452600d909452959091209351845460ff191660ff9091161784559151600184015590516002830155915160038201559051600490910155610b5d565b6006816007811115610a2557fe5b1415610abc57600954610a3e908363ffffffff6110e516565b6009556040805160a08101825260068152600c54624f1a0001602080830191825260008385018181526060850188815260808601838152600160a060020a038b168452600d909452959091209351845460ff191660ff9091161784559151600184015590516002830155915160038201559051600490910155610b5d565b6007816007811115610aca57fe5b1415610b5d57600a54610ae3908363ffffffff6110e516565b600a556040805160a08101825260078152600c546276a70001602080830191825260008385018181526060850188815260808601838152600160a060020a038b168452600d909452959091209351845460ff191660ff90911617845591516001840155905160028301559151600382015590516004909101555b600254610b70908363ffffffff6110e516565b600255806007811115610b7f57fe5b83600160a060020a03167f1ee7c4bce4c301d0c55622a01f860f1b71b72f582250922fa662d173c32164ff84610bb3610be2565b6040805192835260208301919091528051918290030190a3505050565b60055481565b60075481565b60095481565b6002546a52b7d2dcc80cd2e40000000390565b6a52b7d2dcc80cd2e400000081565b60045481565b60035481565b600080548190600160a060020a0316331480610c3b5750336000908152600e602052604090205460ff165b1515610c4657600080fd5b600c54421015610c5557600080fd5b5060005b8251811015610dd357600f60008483815181101515610c7457fe5b6020908102909101810151600160a060020a031682528101919091526040016000205460ff161515610dcb576001600f60008584815181101515610cb457fe5b602090810291909101810151600160a060020a03908116835290820192909252604001600020805460ff191692151592909217909155600154845191169063a9059cbb90859084908110610d0457fe5b6020908102909101810151604080517c010000000000000000000000000000000000000000000000000000000063ffffffff8616028152600160a060020a039092166004830152680d8d726b7177a80000602483015251604480830193928290030181600087803b158015610d7857600080fd5b505af1158015610d8c573d6000803e3d6000fd5b505050506040513d6020811015610da257600080fd5b50511515610daf57600080fd5b610dc882680d8d726b7177a8000063ffffffff61114416565b91505b600101610c59565b600554610de6908363ffffffff6110e516565b600555600254610dfc908363ffffffff6110e516565b600255600b54610e12908363ffffffff61114416565b600b55505050565b600d602052600090815260409020805460018201546002830154600384015460049094015460ff90931693919290919085565b600080548190600160a060020a03163314610e6757600080fd5b600154600160a060020a0384811691161415610e8257600080fd5b604080517f70a082310000000000000000000000000000000000000000000000000000000081523060048201529051849350600160a060020a038416916370a082319160248083019260209291908290030181600087803b158015610ee657600080fd5b505af1158015610efa573d6000803e3d6000fd5b505050506040513d6020811015610f1057600080fd5b5051604080517fa9059cbb000000000000000000000000000000000000000000000000000000008152600160a060020a0387811660048301526024820184905291519293509084169163a9059cbb916044808201926020929091908290030181600087803b158015610f8157600080fd5b505af1158015610f95573d6000803e3d6000fd5b505050506040513d6020811015610fab57600080fd5b50511515610fb857600080fd5b50505050565b600c5481565b600054600160a060020a03163314610fdb57600080fd5b600160a060020a03919091166000908152600e60205260409020805460ff1916911515919091179055565b600f6020526000908152604090205460ff1681565b600054600160a060020a031681565b600b5481565b600154600160a060020a031681565b60025481565b600a5481565b60065481565b600054600160a060020a0316331461106857600080fd5b600160a060020a038116151561107d57600080fd5b60008054604051600160a060020a03808516939216917f8be0079c531659141344cd1fd0a4f28419497f9722a3daafe3b4186f6b6457e091a36000805473ffffffffffffffffffffffffffffffffffffffff1916600160a060020a0392909216919091179055565b6000828211156110f157fe5b50900390565b60008083151561110a5760009150611126565b5082820282848281151561111a57fe5b041461112257fe5b8091505b5092915050565b600080828481151561113b57fe5b04949350505050565b60008282018381101561112257fe00a165627a7a72305820daa56240958efc92da2dc18a93569064a6970a441f87ad55443a6de466d47d51002960c0604052600d60808190527f416b79756d656e20546f6b656e0000000000000000000000000000000000000060a090815261003e916000919061011a565b506040805180820190915260048082527f414b59550000000000000000000000000000000000000000000000000000000060209092019182526100839160019161011a565b5034801561009057600080fd5b50604051602080610a8b8339810160405251600160a060020a03811615156100b757600080fd5b600160a060020a03811660008181526002602090815260408083206a52b7d2dcc80cd2e400000090819055815190815290517fddf252ad1be2c89b69c2b068fc378daa952ba7f163c4a11628f55a4df523b3ef929181900390910190a3506101b5565b828054600181600116156101000203166002900490600052602060002090601f016020900481019282601f1061015b57805160ff1916838001178555610188565b82800160010185558215610188579182015b8281111561018857825182559160200191906001019061016d565b50610194929150610198565b5090565b6101b291905b80821115610194576000815560010161019e565b90565b6108c7806101c46000396000f3006080604052600436106100b95763ffffffff7c010000000000000000000000000000000000000000000000000000000060003504166306fdde0381146100be578063095ea7b31461014857806318160ddd1461018057806323b872dd146101a7578063313ce567146101d157806366188463146101fc5780636d6a6a4d1461022057806370a082311461023557806395d89b4114610256578063a9059cbb1461026b578063d73dd6231461028f578063dd62ed3e146102b3575b600080fd5b3480156100ca57600080fd5b506100d36102da565b6040805160208082528351818301528351919283929083019185019080838360005b8381101561010d5781810151838201526020016100f5565b50505050905090810190601f16801561013a5780820380516001836020036101000a031916815260200191505b509250505060405180910390f35b34801561015457600080fd5b5061016c600160a060020a0360043516602435610368565b604080519115158252519081900360200190f35b34801561018c57600080fd5b506101956103ce565b60408051918252519081900360200190f35b3480156101b357600080fd5b5061016c600160a060020a03600435811690602435166044356103dd565b3480156101dd57600080fd5b506101e6610556565b6040805160ff9092168252519081900360200190f35b34801561020857600080fd5b5061016c600160a060020a036004351660243561055b565b34801561022c57600080fd5b5061019561064b565b34801561024157600080fd5b50610195600160a060020a0360043516610657565b34801561026257600080fd5b506100d3610672565b34801561027757600080fd5b5061016c600160a060020a03600435166024356106cc565b34801561029b57600080fd5b5061016c600160a060020a03600435166024356107af565b3480156102bf57600080fd5b50610195600160a060020a0360043581169060243516610848565b6000805460408051602060026001851615610100026000190190941693909304601f810184900484028201840190925281815292918301828280156103605780601f1061033557610100808354040283529160200191610360565b820191906000526020600020905b81548152906001019060200180831161034357829003601f168201915b505050505081565b336000818152600360209081526040808320600160a060020a038716808552908352818420869055815186815291519394909390927f8c5be1e5ebec7d5bd14f71427d1e84f3dd0314c0f7b2291e5b200ac8c7c3b925928290030190a350600192915050565b6a52b7d2dcc80cd2e400000081565b6000600160a060020a03831615156103f457600080fd5b600160a060020a03841660009081526002602052604090205482111561041957600080fd5b600160a060020a038416600090815260036020908152604080832033845290915290205482111561044957600080fd5b600160a060020a038416600090815260026020526040902054610472908363ffffffff61087316565b600160a060020a0380861660009081526002602052604080822093909355908516815220546104a7908363ffffffff61088516565b600160a060020a0380851660009081526002602090815260408083209490945591871681526003825282812033825290915220546104eb908363ffffffff61087316565b600160a060020a03808616600081815260036020908152604080832033845282529182902094909455805186815290519287169391927fddf252ad1be2c89b69c2b068fc378daa952ba7f163c4a11628f55a4df523b3ef929181900390910190a35060019392505050565b601281565b336000908152600360209081526040808320600160a060020a0386168452909152812054808311156105b057336000908152600360209081526040808320600160a060020a03881684529091528120556105e5565b6105c0818463ffffffff61087316565b336000908152600360209081526040808320600160a060020a03891684529091529020555b336000818152600360209081526040808320600160a060020a0389168085529083529281902054815190815290519293927f8c5be1e5ebec7d5bd14f71427d1e84f3dd0314c0f7b2291e5b200ac8c7c3b925929181900390910190a35060019392505050565b670de0b6b3a764000081565b600160a060020a031660009081526002602052604090205490565b60018054604080516020600284861615610100026000190190941693909304601f810184900484028201840190925281815292918301828280156103605780601f1061033557610100808354040283529160200191610360565b6000600160a060020a03831615156106e357600080fd5b336000908152600260205260409020548211156106ff57600080fd5b3360009081526002602052604090205461071f908363ffffffff61087316565b3360009081526002602052604080822092909255600160a060020a03851681522054610751908363ffffffff61088516565b600160a060020a0384166000818152600260209081526040918290209390935580518581529051919233927fddf252ad1be2c89b69c2b068fc378daa952ba7f163c4a11628f55a4df523b3ef9281900390910190a350600192915050565b336000908152600360209081526040808320600160a060020a03861684529091528120546107e3908363ffffffff61088516565b336000818152600360209081526040808320600160a060020a0389168085529083529281902085905580519485525191937f8c5be1e5ebec7d5bd14f71427d1e84f3dd0314c0f7b2291e5b200ac8c7c3b925929081900390910190a350600192915050565b600160a060020a03918216600090815260036020908152604080832093909416825291909152205490565b60008282111561087f57fe5b50900390565b60008282018381101561089457fe5b93925050505600a165627a7a72305820d8196cb1f06ad34e5f50661e9a5d4c8487dd12c945431e95223d01571a54c39d0029",
  "source": "pragma solidity ^0.4.23;\r\n\r\nimport \"./interfaces/IERC20.sol\";\r\nimport \"./AkyuToken.sol\";\r\nimport \"./SafeMath.sol\";\r\nimport \"./Ownable.sol\";\r\n\r\n/**\r\n * @title AKYU token initial distribution\r\n *\r\n * @dev Distribute purchasers, airdrop, promotion, and founder tokens\r\n */\r\ncontract AkyuDistribution is Ownable {\r\n  using SafeMath for uint256;\r\n\r\n  AkyuToken public AKYU;\r\n\r\n  uint256 private constant decimalFactor = 10**uint256(18);\r\n  enum AllocationType { PREORDER, FOUNDER, AIRDROP, ADVISOR, PROMOTION, EMISSION1, EMISSION2, EMISSION3 }\r\n  uint256 public constant INITIAL_SUPPLY = 100000000 * decimalFactor;\r\n  uint256 public AVAILABLE_TOTAL_SUPPLY = 100000000 * decimalFactor;\r\n  uint256 public AVAILABLE_PREORDER_SUPPLY = 1000000 * decimalFactor; // 100% Released at Token Distribution (TD)\r\n  uint256 public AVAILABLE_FOUNDER_SUPPLY = 15000000 * decimalFactor; // 100% Released at TD\r\n  uint256 public AVAILABLE_AIRDROP_SUPPLY = 15000000 * decimalFactor; // 100% Released at TD\r\n  uint256 public AVAILABLE_ADVISOR_SUPPLY = 15000000 * decimalFactor; // 100% Released at TD\r\n  uint256 public AVAILABLE_PROMOTION_SUPPLY = 24000000 * decimalFactor; // 100% at TD\r\n  uint256 public AVAILABLE_EMISSION1_SUPPLY = 10000000 * decimalFactor; // 100% Released at TD +30 days\r\n  uint256 public AVAILABLE_EMISSION2_SUPPLY = 10000000 * decimalFactor; // 100% Released at TD +60 days\r\n  uint256 public AVAILABLE_EMISSION3_SUPPLY = 10000000 * decimalFactor; // 100% Released at TD +90 days\r\n\r\n  uint256 public grandTotalClaimed = 0;\r\n  uint256 public startTime;\r\n\r\n  // Allocation with vesting information\r\n  struct Allocation {\r\n    uint8 AllocationSupply; // Type of allocation\r\n    uint256 endCliff;       // Tokens are locked until\r\n    uint256 endVesting;     // This is when the tokens are fully unvested\r\n    uint256 totalAllocated; // Total tokens allocated\r\n    uint256 amountClaimed;  // Total tokens claimed\r\n  }\r\n  mapping (address => Allocation) public allocations;\r\n\r\n  // List of admins\r\n  mapping (address => bool) public airdropAdmins;\r\n\r\n  // Keeps track of whether or not a 250 AKYU airdrop has been made to a particular address\r\n  mapping (address => bool) public airdrops;\r\n\r\n  modifier onlyOwnerOrAdmin() {\r\n    require(msg.sender == owner || airdropAdmins[msg.sender]);\r\n    _;\r\n  }\r\n\r\n  event LogNewAllocation(address indexed _recipient, AllocationType indexed _fromSupply, uint256 _totalAllocated, uint256 _grandTotalAllocated);\r\n  event LogAkyuClaimed(address indexed _recipient, uint8 indexed _fromSupply, uint256 _amountClaimed, uint256 _totalAllocated, uint256 _grandTotalClaimed);\r\n\r\n  /**\r\n    * @dev Constructor function - Set the akyu token address\r\n    * @param _startTime The time when AkyuDistribution goes live\r\n    */\r\n  function AkyuDistribution(uint256 _startTime) public {\r\n    require(_startTime >= now);\r\n    require(AVAILABLE_TOTAL_SUPPLY == AVAILABLE_PREORDER_SUPPLY.add(AVAILABLE_FOUNDER_SUPPLY).add(AVAILABLE_AIRDROP_SUPPLY).add(AVAILABLE_ADVISOR_SUPPLY).add(AVAILABLE_EMISSION1_SUPPLY).add(AVAILABLE_EMISSION2_SUPPLY).add(AVAILABLE_EMISSION3_SUPPLY).add(AVAILABLE_PROMOTION_SUPPLY));\r\n    startTime = _startTime;\r\n    AKYU = new AkyuToken(this);\r\n  }\r\n\r\n  /**\r\n    * @dev Allow the owner of the contract to assign a new allocation\r\n    * @param _recipient The recipient of the allocation\r\n    * @param _totalAllocated The total amount of AKYU available to the receipient (after vesting)\r\n    * @param _supply The AKYU supply the allocation will be taken from\r\n    */\r\n  function setAllocation (address _recipient, uint256 _totalAllocated, AllocationType _supply) onlyOwner public {\r\n    require(allocations[_recipient].totalAllocated == 0 && _totalAllocated > 0);\r\n    require(_supply >= AllocationType.PREORDER && _supply <= AllocationType.EMISSION3);\r\n    require(_recipient != address(0));\r\n    if (_supply == AllocationType.PREORDER) {\r\n      AVAILABLE_PREORDER_SUPPLY = AVAILABLE_PREORDER_SUPPLY.sub(_totalAllocated);\r\n      allocations[_recipient] = Allocation(uint8(AllocationType.PREORDER), 0, 0, _totalAllocated, 0);\r\n    } else if (_supply == AllocationType.FOUNDER) {\r\n      AVAILABLE_FOUNDER_SUPPLY = AVAILABLE_FOUNDER_SUPPLY.sub(_totalAllocated);\r\n      allocations[_recipient] = Allocation(uint8(AllocationType.FOUNDER), startTime, 0, _totalAllocated, 0);\r\n    } else if (_supply == AllocationType.ADVISOR) {\r\n      AVAILABLE_ADVISOR_SUPPLY = AVAILABLE_ADVISOR_SUPPLY.sub(_totalAllocated);\r\n      allocations[_recipient] = Allocation(uint8(AllocationType.ADVISOR), startTime, 0, _totalAllocated, 0);\r\n    } else if (_supply == AllocationType.PROMOTION) {\r\n      AVAILABLE_PROMOTION_SUPPLY = AVAILABLE_PROMOTION_SUPPLY.sub(_totalAllocated);\r\n      allocations[_recipient] = Allocation(uint8(AllocationType.PROMOTION), startTime, 0, _totalAllocated, 0);\r\n    } else if (_supply == AllocationType.EMISSION1) {\r\n      AVAILABLE_EMISSION1_SUPPLY = AVAILABLE_EMISSION1_SUPPLY.sub(_totalAllocated);\r\n      allocations[_recipient] = Allocation(uint8(AllocationType.EMISSION1), startTime + 30 days, 0, _totalAllocated, 0);\r\n    } else if (_supply == AllocationType.EMISSION2) {\r\n      AVAILABLE_EMISSION2_SUPPLY = AVAILABLE_EMISSION2_SUPPLY.sub(_totalAllocated);\r\n      allocations[_recipient] = Allocation(uint8(AllocationType.EMISSION2), startTime + 60 days, 0, _totalAllocated, 0);\r\n    } else if (_supply == AllocationType.EMISSION3) {\r\n      AVAILABLE_EMISSION3_SUPPLY = AVAILABLE_EMISSION3_SUPPLY.sub(_totalAllocated);\r\n      allocations[_recipient] = Allocation(uint8(AllocationType.EMISSION3), startTime + 90 days, 0, _totalAllocated, 0);\r\n    }\r\n    AVAILABLE_TOTAL_SUPPLY = AVAILABLE_TOTAL_SUPPLY.sub(_totalAllocated);\r\n    emit LogNewAllocation(_recipient, _supply, _totalAllocated, grandTotalAllocated());\r\n  }\r\n\r\n  /**\r\n    * @dev Add an airdrop admin\r\n    */\r\n  function setAirdropAdmin(address _admin, bool _isAdmin) public onlyOwner {\r\n    airdropAdmins[_admin] = _isAdmin;\r\n  }\r\n\r\n  /**\r\n    * @dev perform a transfer of allocations\r\n    * @param _recipient is a list of recipients\r\n    */\r\n  function airdropTokens(address[] _recipient) public onlyOwnerOrAdmin {\r\n    require(now >= startTime);\r\n    uint airdropped;\r\n    for(uint256 i = 0; i< _recipient.length; i++)\r\n    {\r\n        if (!airdrops[_recipient[i]]) {\r\n          airdrops[_recipient[i]] = true;\r\n          require(AKYU.transfer(_recipient[i], 250 * decimalFactor));\r\n          airdropped = airdropped.add(250 * decimalFactor);\r\n        }\r\n    }\r\n    AVAILABLE_AIRDROP_SUPPLY = AVAILABLE_AIRDROP_SUPPLY.sub(airdropped);\r\n    AVAILABLE_TOTAL_SUPPLY = AVAILABLE_TOTAL_SUPPLY.sub(airdropped);\r\n    grandTotalClaimed = grandTotalClaimed.add(airdropped);\r\n  }\r\n\r\n  /**\r\n    * @dev Transfer a recipients available allocation to their address\r\n    * @param _recipient The address to withdraw tokens for\r\n    */\r\n  function transferTokens (address _recipient) public {\r\n    require(allocations[_recipient].amountClaimed < allocations[_recipient].totalAllocated);\r\n    require(now >= allocations[_recipient].endCliff);\r\n    require(now >= startTime);\r\n    uint256 newAmountClaimed;\r\n    if (allocations[_recipient].endVesting > now) {\r\n      // Transfer available amount based on vesting schedule and allocation\r\n      newAmountClaimed = allocations[_recipient].totalAllocated.mul(now.sub(startTime)).div(allocations[_recipient].endVesting.sub(startTime));\r\n    } else {\r\n      // Transfer total allocated (minus previously claimed tokens)\r\n      newAmountClaimed = allocations[_recipient].totalAllocated;\r\n    }\r\n    uint256 tokensToTransfer = newAmountClaimed.sub(allocations[_recipient].amountClaimed);\r\n    allocations[_recipient].amountClaimed = newAmountClaimed;\r\n    require(AKYU.transfer(_recipient, tokensToTransfer));\r\n    grandTotalClaimed = grandTotalClaimed.add(tokensToTransfer);\r\n    emit LogAkyuClaimed(_recipient, allocations[_recipient].AllocationSupply, tokensToTransfer, newAmountClaimed, grandTotalClaimed);\r\n  }\r\n\r\n  // Returns the amount of AKYU allocated\r\n  function grandTotalAllocated() public view returns (uint256) {\r\n    return INITIAL_SUPPLY - AVAILABLE_TOTAL_SUPPLY;\r\n  }\r\n\r\n  // Allow transfer of accidentally sent ERC20 tokens\r\n  function refundTokens(address _recipient, address _token) public onlyOwner {\r\n    require(_token != address(AKYU));\r\n    IERC20 token = IERC20(_token);\r\n    uint256 balance = token.balanceOf(this);\r\n    require(token.transfer(_recipient, balance));\r\n  }\r\n}\r\n\r\n",
  "sourcePath": "C:\\akyumen\\contracts\\AkyuDistribution.sol",
  "compiler": {
    "name": "solc",
    "version": "0.4.24+commit.e67f0147.Emscripten.clang"
  },
  "schemaVersion": "2.0.1",
  "updatedAt": "2018-07-21T11:35:51.596Z"
}